{
	"SimpleStorage.sol": {
		"SimpleStorage": {
			"abi": [
				{
					"anonymous": false,
					"inputs": [
						{
							"indexed": false,
							"internalType": "uint256",
							"name": "newNumber",
							"type": "uint256"
						},
						{
							"indexed": false,
							"internalType": "address",
							"name": "updatedBy",
							"type": "address"
						}
					],
					"name": "NumberUpdated",
					"type": "event"
				},
				{
					"inputs": [],
					"name": "activateContract",
					"outputs": [],
					"stateMutability": "nonpayable",
					"type": "function"
				},
				{
					"inputs": [
						{
							"internalType": "uint256",
							"name": "_number",
							"type": "uint256"
						}
					],
					"name": "addFavoriteNumber",
					"outputs": [],
					"stateMutability": "nonpayable",
					"type": "function"
				},
				{
					"inputs": [
						{
							"internalType": "string",
							"name": "_name",
							"type": "string"
						},
						{
							"internalType": "uint256",
							"name": "_favoriteNumber",
							"type": "uint256"
						}
					],
					"name": "addPerson",
					"outputs": [],
					"stateMutability": "nonpayable",
					"type": "function"
				},
				{
					"inputs": [],
					"name": "callInternalFunction",
					"outputs": [
						{
							"internalType": "string",
							"name": "",
							"type": "string"
						}
					],
					"stateMutability": "pure",
					"type": "function"
				},
				{
					"inputs": [
						{
							"internalType": "string",
							"name": "_inputString",
							"type": "string"
						}
					],
					"name": "concatenateString",
					"outputs": [
						{
							"internalType": "string",
							"name": "",
							"type": "string"
						}
					],
					"stateMutability": "pure",
					"type": "function"
				},
				{
					"inputs": [],
					"name": "deactivateContract",
					"outputs": [],
					"stateMutability": "nonpayable",
					"type": "function"
				},
				{
					"inputs": [],
					"name": "externalFunction",
					"outputs": [
						{
							"internalType": "string",
							"name": "",
							"type": "string"
						}
					],
					"stateMutability": "pure",
					"type": "function"
				},
				{
					"inputs": [
						{
							"internalType": "uint256",
							"name": "",
							"type": "uint256"
						}
					],
					"name": "favoriteNumbers",
					"outputs": [
						{
							"internalType": "uint256",
							"name": "",
							"type": "uint256"
						}
					],
					"stateMutability": "view",
					"type": "function"
				},
				{
					"inputs": [],
					"name": "getFavoriteNumber",
					"outputs": [
						{
							"internalType": "uint256",
							"name": "",
							"type": "uint256"
						}
					],
					"stateMutability": "view",
					"type": "function"
				},
				{
					"inputs": [],
					"name": "isActive",
					"outputs": [
						{
							"internalType": "bool",
							"name": "",
							"type": "bool"
						}
					],
					"stateMutability": "view",
					"type": "function"
				},
				{
					"inputs": [
						{
							"internalType": "uint256",
							"name": "_compareValue",
							"type": "uint256"
						}
					],
					"name": "isGreaterThan",
					"outputs": [
						{
							"internalType": "bool",
							"name": "",
							"type": "bool"
						}
					],
					"stateMutability": "view",
					"type": "function"
				},
				{
					"inputs": [
						{
							"internalType": "uint256",
							"name": "",
							"type": "uint256"
						}
					],
					"name": "people",
					"outputs": [
						{
							"internalType": "string",
							"name": "name",
							"type": "string"
						},
						{
							"internalType": "uint256",
							"name": "favoriteNumber",
							"type": "uint256"
						}
					],
					"stateMutability": "view",
					"type": "function"
				},
				{
					"inputs": [],
					"name": "state",
					"outputs": [
						{
							"internalType": "enum SimpleStorage.ContractState",
							"name": "",
							"type": "uint8"
						}
					],
					"stateMutability": "view",
					"type": "function"
				},
				{
					"inputs": [
						{
							"internalType": "uint256",
							"name": "_favoriteNumber",
							"type": "uint256"
						}
					],
					"name": "store",
					"outputs": [],
					"stateMutability": "nonpayable",
					"type": "function"
				},
				{
					"inputs": [
						{
							"internalType": "uint256",
							"name": "_favoriteNumber",
							"type": "uint256"
						}
					],
					"name": "storeNumber",
					"outputs": [],
					"stateMutability": "nonpayable",
					"type": "function"
				},
				{
					"inputs": [],
					"name": "sumToFavoriteNumber",
					"outputs": [
						{
							"internalType": "uint256",
							"name": "",
							"type": "uint256"
						}
					],
					"stateMutability": "view",
					"type": "function"
				},
				{
					"inputs": [],
					"name": "testExternalFunction",
					"outputs": [
						{
							"internalType": "string",
							"name": "",
							"type": "string"
						}
					],
					"stateMutability": "view",
					"type": "function"
				}
			],
			"devdoc": {
				"kind": "dev",
				"methods": {},
				"version": 1
			},
			"evm": {
				"assembly": "    /* \"SimpleStorage.sol\":58:3508  contract SimpleStorage {... */\n  mstore(0x40, 0x80)\n    /* \"SimpleStorage.sol\":2417:2418  0 */\n  0x00\n    /* \"SimpleStorage.sol\":2403:2419  new uint256[](0) */\n  0xffffffffffffffff\n  dup2\n  gt\n  iszero\n  tag_1\n  jumpi\n  tag_2\n  tag_3\n  jump\t// in\ntag_2:\ntag_1:\n  mload(0x40)\n  swap1\n  dup1\n  dup3\n  mstore\n  dup1\n  0x20\n  mul\n  0x20\n  add\n  dup3\n  add\n  0x40\n  mstore\n  dup1\n  iszero\n  tag_4\n  jumpi\n  dup2\n  0x20\n  add\n  0x20\n  dup3\n  mul\n  dup1\n  calldatasize\n  dup4\n  calldatacopy\n  dup1\n  dup3\n  add\n  swap2\n  pop\n  pop\n  swap1\n  pop\ntag_4:\n  pop\n    /* \"SimpleStorage.sol\":2368:2419  uint256[] public favoriteNumbers = new uint256[](0) */\n  0x03\n  swap1\n  dup1\n  mload\n  swap1\n  0x20\n  add\n  swap1\n  tag_5\n  swap3\n  swap2\n  swap1\n  tag_6\n  jump\t// in\ntag_5:\n  pop\n    /* \"SimpleStorage.sol\":58:3508  contract SimpleStorage {... */\n  callvalue\n  dup1\n  iszero\n  tag_7\n  jumpi\n  0x00\n  dup1\n  revert\ntag_7:\n  pop\n  jump(tag_8)\ntag_6:\n  dup3\n  dup1\n  sload\n  dup3\n  dup3\n  sstore\n  swap1\n  0x00\n  mstore\n  keccak256(0x00, 0x20)\n  swap1\n  dup2\n  add\n  swap3\n  dup3\n  iszero\n  tag_9\n  jumpi\n  swap2\n  0x20\n  mul\n  dup3\n  add\ntag_10:\n  dup3\n  dup2\n  gt\n  iszero\n  tag_11\n  jumpi\n  dup3\n  mload\n  dup3\n  sstore\n  swap2\n  0x20\n  add\n  swap2\n  swap1\n  0x01\n  add\n  swap1\n  jump(tag_10)\ntag_11:\ntag_9:\n  pop\n  swap1\n  pop\n  tag_12\n  swap2\n  swap1\n  tag_13\n  jump\t// in\ntag_12:\n  pop\n  swap1\n  jump\t// out\ntag_13:\ntag_14:\n  dup1\n  dup3\n  gt\n  iszero\n  tag_15\n  jumpi\n  0x00\n  dup2\n  0x00\n  swap1\n  sstore\n  pop\n  0x01\n  add\n  jump(tag_14)\ntag_15:\n  pop\n  swap1\n  jump\t// out\n    /* \"#utility.yul\":7:187   */\ntag_3:\n    /* \"#utility.yul\":55:132   */\n  0x4e487b7100000000000000000000000000000000000000000000000000000000\n    /* \"#utility.yul\":52:53   */\n  0x00\n    /* \"#utility.yul\":45:133   */\n  mstore\n    /* \"#utility.yul\":152:156   */\n  0x41\n    /* \"#utility.yul\":149:150   */\n  0x04\n    /* \"#utility.yul\":142:157   */\n  mstore\n    /* \"#utility.yul\":176:180   */\n  0x24\n    /* \"#utility.yul\":173:174   */\n  0x00\n    /* \"#utility.yul\":166:181   */\n  revert\n    /* \"SimpleStorage.sol\":58:3508  contract SimpleStorage {... */\ntag_8:\n  dataSize(sub_0)\n  dup1\n  dataOffset(sub_0)\n  0x00\n  codecopy\n  0x00\n  return\nstop\n\nsub_0: assembly {\n        /* \"SimpleStorage.sol\":58:3508  contract SimpleStorage {... */\n      mstore(0x40, 0x80)\n      callvalue\n      dup1\n      iszero\n      tag_1\n      jumpi\n      0x00\n      dup1\n      revert\n    tag_1:\n      pop\n      jumpi(tag_2, lt(calldatasize, 0x04))\n      shr(0xe0, calldataload(0x00))\n      dup1\n      0x9e7a13ad\n      gt\n      tag_20\n      jumpi\n      dup1\n      0xb6339418\n      gt\n      tag_21\n      jumpi\n      dup1\n      0xb6339418\n      eq\n      tag_15\n      jumpi\n      dup1\n      0xbca353be\n      eq\n      tag_16\n      jumpi\n      dup1\n      0xc19d93fb\n      eq\n      tag_17\n      jumpi\n      dup1\n      0xcb6a33f8\n      eq\n      tag_18\n      jumpi\n      dup1\n      0xe0819c9a\n      eq\n      tag_19\n      jumpi\n      jump(tag_2)\n    tag_21:\n      dup1\n      0x9e7a13ad\n      eq\n      tag_11\n      jumpi\n      dup1\n      0xa621d15e\n      eq\n      tag_12\n      jumpi\n      dup1\n      0xa7e1a364\n      eq\n      tag_13\n      jumpi\n      dup1\n      0xb39e12b5\n      eq\n      tag_14\n      jumpi\n      jump(tag_2)\n    tag_20:\n      dup1\n      0x6057361d\n      gt\n      tag_22\n      jumpi\n      dup1\n      0x6057361d\n      eq\n      tag_7\n      jumpi\n      dup1\n      0x6f760f41\n      eq\n      tag_8\n      jumpi\n      dup1\n      0x8701f8ca\n      eq\n      tag_9\n      jumpi\n      dup1\n      0x8fda356d\n      eq\n      tag_10\n      jumpi\n      jump(tag_2)\n    tag_22:\n      dup1\n      0x0cd2636e\n      eq\n      tag_3\n      jumpi\n      dup1\n      0x22f3e2d4\n      eq\n      tag_4\n      jumpi\n      dup1\n      0x29cd1d96\n      eq\n      tag_5\n      jumpi\n      dup1\n      0x3a32b549\n      eq\n      tag_6\n      jumpi\n    tag_2:\n      0x00\n      dup1\n      revert\n        /* \"SimpleStorage.sol\":1348:1549  function sumToFavoriteNumber() public view returns (uint256) {... */\n    tag_3:\n      tag_23\n      tag_24\n      jump\t// in\n    tag_23:\n      mload(0x40)\n      tag_25\n      swap2\n      swap1\n      tag_26\n      jump\t// in\n    tag_25:\n      mload(0x40)\n      dup1\n      swap2\n      sub\n      swap1\n      return\n        /* \"SimpleStorage.sol\":2848:2948  function isActive() public view returns (bool) {... */\n    tag_4:\n      tag_27\n      tag_28\n      jump\t// in\n    tag_27:\n      mload(0x40)\n      tag_29\n      swap2\n      swap1\n      tag_30\n      jump\t// in\n    tag_29:\n      mload(0x40)\n      dup1\n      swap2\n      sub\n      swap1\n      return\n        /* \"SimpleStorage.sol\":2368:2419  uint256[] public favoriteNumbers = new uint256[](0) */\n    tag_5:\n      tag_31\n      0x04\n      dup1\n      calldatasize\n      sub\n      dup2\n      add\n      swap1\n      tag_32\n      swap2\n      swap1\n      tag_33\n      jump\t// in\n    tag_32:\n      tag_34\n      jump\t// in\n    tag_31:\n      mload(0x40)\n      tag_35\n      swap2\n      swap1\n      tag_26\n      jump\t// in\n    tag_35:\n      mload(0x40)\n      dup1\n      swap2\n      sub\n      swap1\n      return\n        /* \"SimpleStorage.sol\":1997:2175  function externalFunction() external pure returns (string memory) {... */\n    tag_6:\n      tag_36\n      tag_37\n      jump\t// in\n    tag_36:\n      mload(0x40)\n      tag_38\n      swap2\n      swap1\n      tag_39\n      jump\t// in\n    tag_38:\n      mload(0x40)\n      dup1\n      swap2\n      sub\n      swap1\n      return\n        /* \"SimpleStorage.sol\":3018:3225  function store(uint256 _favoriteNumber) public {... */\n    tag_7:\n      tag_40\n      0x04\n      dup1\n      calldatasize\n      sub\n      dup2\n      add\n      swap1\n      tag_41\n      swap2\n      swap1\n      tag_33\n      jump\t// in\n    tag_41:\n      tag_42\n      jump\t// in\n    tag_40:\n      stop\n        /* \"SimpleStorage.sol\":2531:2663  function addPerson(string memory _name, uint256 _favoriteNumber) public {... */\n    tag_8:\n      tag_43\n      0x04\n      dup1\n      calldatasize\n      sub\n      dup2\n      add\n      swap1\n      tag_44\n      swap2\n      swap1\n      tag_45\n      jump\t// in\n    tag_44:\n      tag_46\n      jump\t// in\n    tag_43:\n      stop\n        /* \"SimpleStorage.sol\":1824:1990  function callInternalFunction() public pure returns (string memory) {... */\n    tag_9:\n      tag_47\n      tag_48\n      jump\t// in\n    tag_47:\n      mload(0x40)\n      tag_49\n      swap2\n      swap1\n      tag_39\n      jump\t// in\n    tag_49:\n      mload(0x40)\n      dup1\n      swap2\n      sub\n      swap1\n      return\n        /* \"SimpleStorage.sol\":2670:2750  function activateContract() public {... */\n    tag_10:\n      tag_50\n      tag_51\n      jump\t// in\n    tag_50:\n      stop\n        /* \"SimpleStorage.sol\":442:464  Person[] public people */\n    tag_11:\n      tag_52\n      0x04\n      dup1\n      calldatasize\n      sub\n      dup2\n      add\n      swap1\n      tag_53\n      swap2\n      swap1\n      tag_33\n      jump\t// in\n    tag_53:\n      tag_54\n      jump\t// in\n    tag_52:\n      mload(0x40)\n      tag_55\n      swap3\n      swap2\n      swap1\n      tag_56\n      jump\t// in\n    tag_55:\n      mload(0x40)\n      dup1\n      swap2\n      sub\n      swap1\n      return\n        /* \"SimpleStorage.sol\":984:1132  function getFavoriteNumber() public view returns (uint256) {... */\n    tag_12:\n      tag_57\n      tag_58\n      jump\t// in\n    tag_57:\n      mload(0x40)\n      tag_59\n      swap2\n      swap1\n      tag_26\n      jump\t// in\n    tag_59:\n      mload(0x40)\n      dup1\n      swap2\n      sub\n      swap1\n      return\n        /* \"SimpleStorage.sol\":2427:2524  function addFavoriteNumber(uint256 _number) public {... */\n    tag_13:\n      tag_60\n      0x04\n      dup1\n      calldatasize\n      sub\n      dup2\n      add\n      swap1\n      tag_61\n      swap2\n      swap1\n      tag_33\n      jump\t// in\n    tag_61:\n      tag_62\n      jump\t// in\n    tag_60:\n      stop\n        /* \"SimpleStorage.sol\":3230:3506  function concatenateString(string calldata _inputString) public pure returns (string memory) {... */\n    tag_14:\n      tag_63\n      0x04\n      dup1\n      calldatasize\n      sub\n      dup2\n      add\n      swap1\n      tag_64\n      swap2\n      swap1\n      tag_65\n      jump\t// in\n    tag_64:\n      tag_66\n      jump\t// in\n    tag_63:\n      mload(0x40)\n      tag_67\n      swap2\n      swap1\n      tag_39\n      jump\t// in\n    tag_67:\n      mload(0x40)\n      dup1\n      swap2\n      sub\n      swap1\n      return\n        /* \"SimpleStorage.sol\":818:970  function storeNumber(uint256 _favoriteNumber) public {... */\n    tag_15:\n      tag_68\n      0x04\n      dup1\n      calldatasize\n      sub\n      dup2\n      add\n      swap1\n      tag_69\n      swap2\n      swap1\n      tag_33\n      jump\t// in\n    tag_69:\n      tag_70\n      jump\t// in\n    tag_68:\n      stop\n        /* \"SimpleStorage.sol\":2757:2841  function deactivateContract() public {... */\n    tag_16:\n      tag_71\n      tag_72\n      jump\t// in\n    tag_71:\n      stop\n        /* \"SimpleStorage.sol\":737:763  ContractState public state */\n    tag_17:\n      tag_73\n      tag_74\n      jump\t// in\n    tag_73:\n      mload(0x40)\n      tag_75\n      swap2\n      swap1\n      tag_76\n      jump\t// in\n    tag_75:\n      mload(0x40)\n      dup1\n      swap2\n      sub\n      swap1\n      return\n        /* \"SimpleStorage.sol\":1138:1342  function isGreaterThan(uint256 _compareValue) public view returns (bool) {... */\n    tag_18:\n      tag_77\n      0x04\n      dup1\n      calldatasize\n      sub\n      dup2\n      add\n      swap1\n      tag_78\n      swap2\n      swap1\n      tag_33\n      jump\t// in\n    tag_78:\n      tag_79\n      jump\t// in\n    tag_77:\n      mload(0x40)\n      tag_80\n      swap2\n      swap1\n      tag_30\n      jump\t// in\n    tag_80:\n      mload(0x40)\n      dup1\n      swap2\n      sub\n      swap1\n      return\n        /* \"SimpleStorage.sol\":2182:2361  function testExternalFunction() public view returns (string memory) {... */\n    tag_19:\n      tag_81\n      tag_82\n      jump\t// in\n    tag_81:\n      mload(0x40)\n      tag_83\n      swap2\n      swap1\n      tag_39\n      jump\t// in\n    tag_83:\n      mload(0x40)\n      dup1\n      swap2\n      sub\n      swap1\n      return\n        /* \"SimpleStorage.sol\":1348:1549  function sumToFavoriteNumber() public view returns (uint256) {... */\n    tag_24:\n        /* \"SimpleStorage.sol\":1400:1407  uint256 */\n      0x00\n        /* \"SimpleStorage.sol\":1419:1430  uint256 sum */\n      dup1\n        /* \"SimpleStorage.sol\":1433:1434  0 */\n      0x00\n        /* \"SimpleStorage.sol\":1419:1434  uint256 sum = 0 */\n      swap1\n      pop\n        /* \"SimpleStorage.sol\":1449:1458  uint256 i */\n      0x00\n        /* \"SimpleStorage.sol\":1461:1462  1 */\n      0x01\n        /* \"SimpleStorage.sol\":1449:1462  uint256 i = 1 */\n      swap1\n      pop\n        /* \"SimpleStorage.sol\":1444:1523  for (uint256 i = 1; i <= favoriteNumber; i++) {... */\n    tag_85:\n        /* \"SimpleStorage.sol\":1469:1483  favoriteNumber */\n      sload(0x00)\n        /* \"SimpleStorage.sol\":1464:1465  i */\n      dup2\n        /* \"SimpleStorage.sol\":1464:1483  i <= favoriteNumber */\n      gt\n        /* \"SimpleStorage.sol\":1444:1523  for (uint256 i = 1; i <= favoriteNumber; i++) {... */\n      tag_86\n      jumpi\n        /* \"SimpleStorage.sol\":1511:1512  i */\n      dup1\n        /* \"SimpleStorage.sol\":1504:1512  sum += i */\n      dup3\n      tag_88\n      swap2\n      swap1\n      tag_89\n      jump\t// in\n    tag_88:\n      swap2\n      pop\n        /* \"SimpleStorage.sol\":1485:1488  i++ */\n      dup1\n      dup1\n      tag_90\n      swap1\n      tag_91\n      jump\t// in\n    tag_90:\n      swap2\n      pop\n      pop\n        /* \"SimpleStorage.sol\":1444:1523  for (uint256 i = 1; i <= favoriteNumber; i++) {... */\n      jump(tag_85)\n    tag_86:\n      pop\n        /* \"SimpleStorage.sol\":1539:1542  sum */\n      dup1\n        /* \"SimpleStorage.sol\":1532:1542  return sum */\n      swap2\n      pop\n      pop\n        /* \"SimpleStorage.sol\":1348:1549  function sumToFavoriteNumber() public view returns (uint256) {... */\n      swap1\n      jump\t// out\n        /* \"SimpleStorage.sol\":2848:2948  function isActive() public view returns (bool) {... */\n    tag_28:\n        /* \"SimpleStorage.sol\":2889:2893  bool */\n      0x00\n        /* \"SimpleStorage.sol\":2921:2941  ContractState.Active */\n      dup1\n        /* \"SimpleStorage.sol\":2912:2941  state == ContractState.Active */\n      0x01\n      dup2\n      gt\n      iszero\n      tag_93\n      jumpi\n      tag_94\n      tag_95\n      jump\t// in\n    tag_94:\n    tag_93:\n        /* \"SimpleStorage.sol\":2912:2917  state */\n      0x02\n      0x00\n      swap1\n      sload\n      swap1\n      0x0100\n      exp\n      swap1\n      div\n      0xff\n      and\n        /* \"SimpleStorage.sol\":2912:2941  state == ContractState.Active */\n      0x01\n      dup2\n      gt\n      iszero\n      tag_96\n      jumpi\n      tag_97\n      tag_95\n      jump\t// in\n    tag_97:\n    tag_96:\n      eq\n        /* \"SimpleStorage.sol\":2905:2941  return state == ContractState.Active */\n      swap1\n      pop\n        /* \"SimpleStorage.sol\":2848:2948  function isActive() public view returns (bool) {... */\n      swap1\n      jump\t// out\n        /* \"SimpleStorage.sol\":2368:2419  uint256[] public favoriteNumbers = new uint256[](0) */\n    tag_34:\n      0x03\n      dup2\n      dup2\n      sload\n      dup2\n      lt\n      tag_98\n      jumpi\n      0x00\n      dup1\n      revert\n    tag_98:\n      swap1\n      0x00\n      mstore\n      keccak256(0x00, 0x20)\n      add\n      0x00\n      swap2\n      pop\n      swap1\n      pop\n      sload\n      dup2\n      jump\t// out\n        /* \"SimpleStorage.sol\":1997:2175  function externalFunction() external pure returns (string memory) {... */\n    tag_37:\n        /* \"SimpleStorage.sol\":2048:2061  string memory */\n      0x60\n        /* \"SimpleStorage.sol\":2073:2110  return \"This is an external function\" */\n      mload(0x40)\n      dup1\n      0x40\n      add\n      0x40\n      mstore\n      dup1\n      0x1c\n      dup2\n      mstore\n      0x20\n      add\n      0x5468697320697320616e2065787465726e616c2066756e6374696f6e00000000\n      dup2\n      mstore\n      pop\n      swap1\n      pop\n        /* \"SimpleStorage.sol\":1997:2175  function externalFunction() external pure returns (string memory) {... */\n      swap1\n      jump\t// out\n        /* \"SimpleStorage.sol\":3018:3225  function store(uint256 _favoriteNumber) public {... */\n    tag_42:\n        /* \"SimpleStorage.sol\":3092:3107  _favoriteNumber */\n      dup1\n        /* \"SimpleStorage.sol\":3075:3089  favoriteNumber */\n      0x00\n        /* \"SimpleStorage.sol\":3075:3107  favoriteNumber = _favoriteNumber */\n      dup2\n      swap1\n      sstore\n      pop\n        /* \"SimpleStorage.sol\":3176:3218  NumberUpdated(_favoriteNumber, msg.sender) */\n      0xe5f28171f43fc54876f02589c23cc70d19e06f868cc3811c456e8c61c296a27e\n        /* \"SimpleStorage.sol\":3190:3205  _favoriteNumber */\n      dup2\n        /* \"SimpleStorage.sol\":3207:3217  msg.sender */\n      caller\n        /* \"SimpleStorage.sol\":3176:3218  NumberUpdated(_favoriteNumber, msg.sender) */\n      mload(0x40)\n      tag_102\n      swap3\n      swap2\n      swap1\n      tag_103\n      jump\t// in\n    tag_102:\n      mload(0x40)\n      dup1\n      swap2\n      sub\n      swap1\n      log1\n        /* \"SimpleStorage.sol\":3018:3225  function store(uint256 _favoriteNumber) public {... */\n      pop\n      jump\t// out\n        /* \"SimpleStorage.sol\":2531:2663  function addPerson(string memory _name, uint256 _favoriteNumber) public {... */\n    tag_46:\n        /* \"SimpleStorage.sol\":2613:2619  people */\n      0x01\n        /* \"SimpleStorage.sol\":2625:2655  Person(_name, _favoriteNumber) */\n      mload(0x40)\n      dup1\n      0x40\n      add\n      0x40\n      mstore\n      dup1\n        /* \"SimpleStorage.sol\":2632:2637  _name */\n      dup5\n        /* \"SimpleStorage.sol\":2625:2655  Person(_name, _favoriteNumber) */\n      dup2\n      mstore\n      0x20\n      add\n        /* \"SimpleStorage.sol\":2639:2654  _favoriteNumber */\n      dup4\n        /* \"SimpleStorage.sol\":2625:2655  Person(_name, _favoriteNumber) */\n      dup2\n      mstore\n      pop\n        /* \"SimpleStorage.sol\":2613:2656  people.push(Person(_name, _favoriteNumber)) */\n      swap1\n      dup1\n      0x01\n      dup2\n      sload\n      add\n      dup1\n      dup3\n      sstore\n      dup1\n      swap2\n      pop\n      pop\n      0x01\n      swap1\n      sub\n      swap1\n      0x00\n      mstore\n      keccak256(0x00, 0x20)\n      swap1\n      0x02\n      mul\n      add\n      0x00\n      swap1\n      swap2\n      swap1\n      swap2\n      swap1\n      swap2\n      pop\n      0x00\n      dup3\n      add\n      mload\n      dup2\n      0x00\n      add\n      swap1\n      dup2\n      tag_106\n      swap2\n      swap1\n      tag_107\n      jump\t// in\n    tag_106:\n      pop\n      0x20\n      dup3\n      add\n      mload\n      dup2\n      0x01\n      add\n      sstore\n      pop\n      pop\n        /* \"SimpleStorage.sol\":2531:2663  function addPerson(string memory _name, uint256 _favoriteNumber) public {... */\n      pop\n      pop\n      jump\t// out\n        /* \"SimpleStorage.sol\":1824:1990  function callInternalFunction() public pure returns (string memory) {... */\n    tag_48:\n        /* \"SimpleStorage.sol\":1877:1890  string memory */\n      0x60\n        /* \"SimpleStorage.sol\":1909:1927  internalFunction() */\n      tag_109\n        /* \"SimpleStorage.sol\":1909:1925  internalFunction */\n      tag_110\n        /* \"SimpleStorage.sol\":1909:1927  internalFunction() */\n      jump\t// in\n    tag_109:\n        /* \"SimpleStorage.sol\":1902:1927  return internalFunction() */\n      swap1\n      pop\n        /* \"SimpleStorage.sol\":1824:1990  function callInternalFunction() public pure returns (string memory) {... */\n      swap1\n      jump\t// out\n        /* \"SimpleStorage.sol\":2670:2750  function activateContract() public {... */\n    tag_51:\n        /* \"SimpleStorage.sol\":2723:2743  ContractState.Active */\n      0x00\n        /* \"SimpleStorage.sol\":2715:2720  state */\n      0x02\n      0x00\n        /* \"SimpleStorage.sol\":2715:2743  state = ContractState.Active */\n      0x0100\n      exp\n      dup2\n      sload\n      dup2\n      0xff\n      mul\n      not\n      and\n      swap1\n      dup4\n      0x01\n      dup2\n      gt\n      iszero\n      tag_112\n      jumpi\n      tag_113\n      tag_95\n      jump\t// in\n    tag_113:\n    tag_112:\n      mul\n      or\n      swap1\n      sstore\n      pop\n        /* \"SimpleStorage.sol\":2670:2750  function activateContract() public {... */\n      jump\t// out\n        /* \"SimpleStorage.sol\":442:464  Person[] public people */\n    tag_54:\n      0x01\n      dup2\n      dup2\n      sload\n      dup2\n      lt\n      tag_114\n      jumpi\n      0x00\n      dup1\n      revert\n    tag_114:\n      swap1\n      0x00\n      mstore\n      keccak256(0x00, 0x20)\n      swap1\n      0x02\n      mul\n      add\n      0x00\n      swap2\n      pop\n      swap1\n      pop\n      dup1\n      0x00\n      add\n      dup1\n      sload\n      tag_116\n      swap1\n      tag_117\n      jump\t// in\n    tag_116:\n      dup1\n      0x1f\n      add\n      0x20\n      dup1\n      swap2\n      div\n      mul\n      0x20\n      add\n      mload(0x40)\n      swap1\n      dup2\n      add\n      0x40\n      mstore\n      dup1\n      swap3\n      swap2\n      swap1\n      dup2\n      dup2\n      mstore\n      0x20\n      add\n      dup3\n      dup1\n      sload\n      tag_118\n      swap1\n      tag_117\n      jump\t// in\n    tag_118:\n      dup1\n      iszero\n      tag_119\n      jumpi\n      dup1\n      0x1f\n      lt\n      tag_120\n      jumpi\n      0x0100\n      dup1\n      dup4\n      sload\n      div\n      mul\n      dup4\n      mstore\n      swap2\n      0x20\n      add\n      swap2\n      jump(tag_119)\n    tag_120:\n      dup3\n      add\n      swap2\n      swap1\n      0x00\n      mstore\n      keccak256(0x00, 0x20)\n      swap1\n    tag_121:\n      dup2\n      sload\n      dup2\n      mstore\n      swap1\n      0x01\n      add\n      swap1\n      0x20\n      add\n      dup1\n      dup4\n      gt\n      tag_121\n      jumpi\n      dup3\n      swap1\n      sub\n      0x1f\n      and\n      dup3\n      add\n      swap2\n    tag_119:\n      pop\n      pop\n      pop\n      pop\n      pop\n      swap1\n      dup1\n      0x01\n      add\n      sload\n      swap1\n      pop\n      dup3\n      jump\t// out\n        /* \"SimpleStorage.sol\":984:1132  function getFavoriteNumber() public view returns (uint256) {... */\n    tag_58:\n        /* \"SimpleStorage.sol\":1034:1041  uint256 */\n      0x00\n        /* \"SimpleStorage.sol\":1060:1074  favoriteNumber */\n      dup1\n      sload\n        /* \"SimpleStorage.sol\":1053:1074  return favoriteNumber */\n      swap1\n      pop\n        /* \"SimpleStorage.sol\":984:1132  function getFavoriteNumber() public view returns (uint256) {... */\n      swap1\n      jump\t// out\n        /* \"SimpleStorage.sol\":2427:2524  function addFavoriteNumber(uint256 _number) public {... */\n    tag_62:\n        /* \"SimpleStorage.sol\":2488:2503  favoriteNumbers */\n      0x03\n        /* \"SimpleStorage.sol\":2509:2516  _number */\n      dup2\n        /* \"SimpleStorage.sol\":2488:2517  favoriteNumbers.push(_number) */\n      swap1\n      dup1\n      0x01\n      dup2\n      sload\n      add\n      dup1\n      dup3\n      sstore\n      dup1\n      swap2\n      pop\n      pop\n      0x01\n      swap1\n      sub\n      swap1\n      0x00\n      mstore\n      keccak256(0x00, 0x20)\n      add\n      0x00\n      swap1\n      swap2\n      swap1\n      swap2\n      swap1\n      swap2\n      pop\n      sstore\n        /* \"SimpleStorage.sol\":2427:2524  function addFavoriteNumber(uint256 _number) public {... */\n      pop\n      jump\t// out\n        /* \"SimpleStorage.sol\":3230:3506  function concatenateString(string calldata _inputString) public pure returns (string memory) {... */\n    tag_66:\n        /* \"SimpleStorage.sol\":3308:3321  string memory */\n      0x60\n        /* \"SimpleStorage.sol\":3393:3416  string memory newString */\n      0x00\n        /* \"SimpleStorage.sol\":3443:3455  _inputString */\n      dup4\n      dup4\n        /* \"SimpleStorage.sol\":3426:3472  abi.encodePacked(_inputString, \" is awesome!\") */\n      add(0x20, mload(0x40))\n      tag_126\n      swap3\n      swap2\n      swap1\n      tag_127\n      jump\t// in\n    tag_126:\n      mload(0x40)\n      0x20\n      dup2\n      dup4\n      sub\n      sub\n      dup2\n      mstore\n      swap1\n      0x40\n      mstore\n        /* \"SimpleStorage.sol\":3393:3473  string memory newString = string(abi.encodePacked(_inputString, \" is awesome!\")) */\n      swap1\n      pop\n        /* \"SimpleStorage.sol\":3490:3499  newString */\n      dup1\n        /* \"SimpleStorage.sol\":3483:3499  return newString */\n      swap2\n      pop\n      pop\n        /* \"SimpleStorage.sol\":3230:3506  function concatenateString(string calldata _inputString) public pure returns (string memory) {... */\n      swap3\n      swap2\n      pop\n      pop\n      jump\t// out\n        /* \"SimpleStorage.sol\":818:970  function storeNumber(uint256 _favoriteNumber) public {... */\n    tag_70:\n        /* \"SimpleStorage.sol\":898:913  _favoriteNumber */\n      dup1\n        /* \"SimpleStorage.sol\":881:895  favoriteNumber */\n      0x00\n        /* \"SimpleStorage.sol\":881:913  favoriteNumber = _favoriteNumber */\n      dup2\n      swap1\n      sstore\n      pop\n        /* \"SimpleStorage.sol\":818:970  function storeNumber(uint256 _favoriteNumber) public {... */\n      pop\n      jump\t// out\n        /* \"SimpleStorage.sol\":2757:2841  function deactivateContract() public {... */\n    tag_72:\n        /* \"SimpleStorage.sol\":2812:2834  ContractState.Inactive */\n      0x01\n        /* \"SimpleStorage.sol\":2804:2809  state */\n      0x02\n      0x00\n        /* \"SimpleStorage.sol\":2804:2834  state = ContractState.Inactive */\n      0x0100\n      exp\n      dup2\n      sload\n      dup2\n      0xff\n      mul\n      not\n      and\n      swap1\n      dup4\n      0x01\n      dup2\n      gt\n      iszero\n      tag_130\n      jumpi\n      tag_131\n      tag_95\n      jump\t// in\n    tag_131:\n    tag_130:\n      mul\n      or\n      swap1\n      sstore\n      pop\n        /* \"SimpleStorage.sol\":2757:2841  function deactivateContract() public {... */\n      jump\t// out\n        /* \"SimpleStorage.sol\":737:763  ContractState public state */\n    tag_74:\n      0x02\n      0x00\n      swap1\n      sload\n      swap1\n      0x0100\n      exp\n      swap1\n      div\n      0xff\n      and\n      dup2\n      jump\t// out\n        /* \"SimpleStorage.sol\":1138:1342  function isGreaterThan(uint256 _compareValue) public view returns (bool) {... */\n    tag_79:\n        /* \"SimpleStorage.sol\":1205:1209  bool */\n      0x00\n        /* \"SimpleStorage.sol\":1242:1255  _compareValue */\n      dup2\n        /* \"SimpleStorage.sol\":1225:1239  favoriteNumber */\n      sload(0x00)\n        /* \"SimpleStorage.sol\":1225:1255  favoriteNumber > _compareValue */\n      gt\n        /* \"SimpleStorage.sol\":1221:1336  if (favoriteNumber > _compareValue) {... */\n      iszero\n      tag_133\n      jumpi\n        /* \"SimpleStorage.sol\":1278:1282  true */\n      0x01\n        /* \"SimpleStorage.sol\":1271:1282  return true */\n      swap1\n      pop\n      jump(tag_132)\n        /* \"SimpleStorage.sol\":1221:1336  if (favoriteNumber > _compareValue) {... */\n    tag_133:\n        /* \"SimpleStorage.sol\":1320:1325  false */\n      0x00\n        /* \"SimpleStorage.sol\":1313:1325  return false */\n      swap1\n      pop\n        /* \"SimpleStorage.sol\":1138:1342  function isGreaterThan(uint256 _compareValue) public view returns (bool) {... */\n    tag_132:\n      swap2\n      swap1\n      pop\n      jump\t// out\n        /* \"SimpleStorage.sol\":2182:2361  function testExternalFunction() public view returns (string memory) {... */\n    tag_82:\n        /* \"SimpleStorage.sol\":2235:2248  string memory */\n      0x60\n        /* \"SimpleStorage.sol\":2267:2271  this */\n      address\n        /* \"SimpleStorage.sol\":2267:2288  this.externalFunction */\n      0xffffffffffffffffffffffffffffffffffffffff\n      and\n      0x3a32b549\n        /* \"SimpleStorage.sol\":2267:2290  this.externalFunction() */\n      mload(0x40)\n      dup2\n      0xffffffff\n      and\n      0xe0\n      shl\n      dup2\n      mstore\n      0x04\n      add\n      0x00\n      mload(0x40)\n      dup1\n      dup4\n      sub\n      dup2\n      dup7\n      gas\n      staticcall\n      iszero\n      dup1\n      iszero\n      tag_137\n      jumpi\n      returndatasize\n      0x00\n      dup1\n      returndatacopy\n      revert(0x00, returndatasize)\n    tag_137:\n      pop\n      pop\n      pop\n      pop\n      mload(0x40)\n      returndatasize\n      0x00\n      dup3\n      returndatacopy\n      returndatasize\n      not(0x1f)\n      0x1f\n      dup3\n      add\n      and\n      dup3\n      add\n      dup1\n      0x40\n      mstore\n      pop\n      dup2\n      add\n      swap1\n      tag_138\n      swap2\n      swap1\n      tag_139\n      jump\t// in\n    tag_138:\n        /* \"SimpleStorage.sol\":2260:2290  return this.externalFunction() */\n      swap1\n      pop\n        /* \"SimpleStorage.sol\":2182:2361  function testExternalFunction() public view returns (string memory) {... */\n      swap1\n      jump\t// out\n        /* \"SimpleStorage.sol\":1555:1746  function internalFunction() internal pure returns (string memory) {... */\n    tag_110:\n        /* \"SimpleStorage.sol\":1606:1619  string memory */\n      0x60\n        /* \"SimpleStorage.sol\":1631:1668  return \"This is an internal function\" */\n      mload(0x40)\n      dup1\n      0x40\n      add\n      0x40\n      mstore\n      dup1\n      0x1c\n      dup2\n      mstore\n      0x20\n      add\n      0x5468697320697320616e20696e7465726e616c2066756e6374696f6e00000000\n      dup2\n      mstore\n      pop\n      swap1\n      pop\n        /* \"SimpleStorage.sol\":1555:1746  function internalFunction() internal pure returns (string memory) {... */\n      swap1\n      jump\t// out\n        /* \"#utility.yul\":7:84   */\n    tag_141:\n        /* \"#utility.yul\":44:51   */\n      0x00\n        /* \"#utility.yul\":73:78   */\n      dup2\n        /* \"#utility.yul\":62:78   */\n      swap1\n      pop\n        /* \"#utility.yul\":7:84   */\n      swap2\n      swap1\n      pop\n      jump\t// out\n        /* \"#utility.yul\":90:208   */\n    tag_142:\n        /* \"#utility.yul\":177:201   */\n      tag_200\n        /* \"#utility.yul\":195:200   */\n      dup2\n        /* \"#utility.yul\":177:201   */\n      tag_141\n      jump\t// in\n    tag_200:\n        /* \"#utility.yul\":172:175   */\n      dup3\n        /* \"#utility.yul\":165:202   */\n      mstore\n        /* \"#utility.yul\":90:208   */\n      pop\n      pop\n      jump\t// out\n        /* \"#utility.yul\":214:436   */\n    tag_26:\n        /* \"#utility.yul\":307:311   */\n      0x00\n        /* \"#utility.yul\":345:347   */\n      0x20\n        /* \"#utility.yul\":334:343   */\n      dup3\n        /* \"#utility.yul\":330:348   */\n      add\n        /* \"#utility.yul\":322:348   */\n      swap1\n      pop\n        /* \"#utility.yul\":358:429   */\n      tag_202\n        /* \"#utility.yul\":426:427   */\n      0x00\n        /* \"#utility.yul\":415:424   */\n      dup4\n        /* \"#utility.yul\":411:428   */\n      add\n        /* \"#utility.yul\":402:408   */\n      dup5\n        /* \"#utility.yul\":358:429   */\n      tag_142\n      jump\t// in\n    tag_202:\n        /* \"#utility.yul\":214:436   */\n      swap3\n      swap2\n      pop\n      pop\n      jump\t// out\n        /* \"#utility.yul\":442:532   */\n    tag_143:\n        /* \"#utility.yul\":476:483   */\n      0x00\n        /* \"#utility.yul\":519:524   */\n      dup2\n        /* \"#utility.yul\":512:525   */\n      iszero\n        /* \"#utility.yul\":505:526   */\n      iszero\n        /* \"#utility.yul\":494:526   */\n      swap1\n      pop\n        /* \"#utility.yul\":442:532   */\n      swap2\n      swap1\n      pop\n      jump\t// out\n        /* \"#utility.yul\":538:647   */\n    tag_144:\n        /* \"#utility.yul\":619:640   */\n      tag_205\n        /* \"#utility.yul\":634:639   */\n      dup2\n        /* \"#utility.yul\":619:640   */\n      tag_143\n      jump\t// in\n    tag_205:\n        /* \"#utility.yul\":614:617   */\n      dup3\n        /* \"#utility.yul\":607:641   */\n      mstore\n        /* \"#utility.yul\":538:647   */\n      pop\n      pop\n      jump\t// out\n        /* \"#utility.yul\":653:863   */\n    tag_30:\n        /* \"#utility.yul\":740:744   */\n      0x00\n        /* \"#utility.yul\":778:780   */\n      0x20\n        /* \"#utility.yul\":767:776   */\n      dup3\n        /* \"#utility.yul\":763:781   */\n      add\n        /* \"#utility.yul\":755:781   */\n      swap1\n      pop\n        /* \"#utility.yul\":791:856   */\n      tag_207\n        /* \"#utility.yul\":853:854   */\n      0x00\n        /* \"#utility.yul\":842:851   */\n      dup4\n        /* \"#utility.yul\":838:855   */\n      add\n        /* \"#utility.yul\":829:835   */\n      dup5\n        /* \"#utility.yul\":791:856   */\n      tag_144\n      jump\t// in\n    tag_207:\n        /* \"#utility.yul\":653:863   */\n      swap3\n      swap2\n      pop\n      pop\n      jump\t// out\n        /* \"#utility.yul\":869:944   */\n    tag_145:\n        /* \"#utility.yul\":902:908   */\n      0x00\n        /* \"#utility.yul\":935:937   */\n      0x40\n        /* \"#utility.yul\":929:938   */\n      mload\n        /* \"#utility.yul\":919:938   */\n      swap1\n      pop\n        /* \"#utility.yul\":869:944   */\n      swap1\n      jump\t// out\n        /* \"#utility.yul\":950:1067   */\n    tag_146:\n        /* \"#utility.yul\":1059:1060   */\n      0x00\n        /* \"#utility.yul\":1056:1057   */\n      dup1\n        /* \"#utility.yul\":1049:1061   */\n      revert\n        /* \"#utility.yul\":1073:1190   */\n    tag_147:\n        /* \"#utility.yul\":1182:1183   */\n      0x00\n        /* \"#utility.yul\":1179:1180   */\n      dup1\n        /* \"#utility.yul\":1172:1184   */\n      revert\n        /* \"#utility.yul\":1196:1318   */\n    tag_148:\n        /* \"#utility.yul\":1269:1293   */\n      tag_212\n        /* \"#utility.yul\":1287:1292   */\n      dup2\n        /* \"#utility.yul\":1269:1293   */\n      tag_141\n      jump\t// in\n    tag_212:\n        /* \"#utility.yul\":1262:1267   */\n      dup2\n        /* \"#utility.yul\":1259:1294   */\n      eq\n        /* \"#utility.yul\":1249:1312   */\n      tag_213\n      jumpi\n        /* \"#utility.yul\":1308:1309   */\n      0x00\n        /* \"#utility.yul\":1305:1306   */\n      dup1\n        /* \"#utility.yul\":1298:1310   */\n      revert\n        /* \"#utility.yul\":1249:1312   */\n    tag_213:\n        /* \"#utility.yul\":1196:1318   */\n      pop\n      jump\t// out\n        /* \"#utility.yul\":1324:1463   */\n    tag_149:\n        /* \"#utility.yul\":1370:1375   */\n      0x00\n        /* \"#utility.yul\":1408:1414   */\n      dup2\n        /* \"#utility.yul\":1395:1415   */\n      calldataload\n        /* \"#utility.yul\":1386:1415   */\n      swap1\n      pop\n        /* \"#utility.yul\":1424:1457   */\n      tag_215\n        /* \"#utility.yul\":1451:1456   */\n      dup2\n        /* \"#utility.yul\":1424:1457   */\n      tag_148\n      jump\t// in\n    tag_215:\n        /* \"#utility.yul\":1324:1463   */\n      swap3\n      swap2\n      pop\n      pop\n      jump\t// out\n        /* \"#utility.yul\":1469:1798   */\n    tag_33:\n        /* \"#utility.yul\":1528:1534   */\n      0x00\n        /* \"#utility.yul\":1577:1579   */\n      0x20\n        /* \"#utility.yul\":1565:1574   */\n      dup3\n        /* \"#utility.yul\":1556:1563   */\n      dup5\n        /* \"#utility.yul\":1552:1575   */\n      sub\n        /* \"#utility.yul\":1548:1580   */\n      slt\n        /* \"#utility.yul\":1545:1664   */\n      iszero\n      tag_217\n      jumpi\n        /* \"#utility.yul\":1583:1662   */\n      tag_218\n      tag_146\n      jump\t// in\n    tag_218:\n        /* \"#utility.yul\":1545:1664   */\n    tag_217:\n        /* \"#utility.yul\":1703:1704   */\n      0x00\n        /* \"#utility.yul\":1728:1781   */\n      tag_219\n        /* \"#utility.yul\":1773:1780   */\n      dup5\n        /* \"#utility.yul\":1764:1770   */\n      dup3\n        /* \"#utility.yul\":1753:1762   */\n      dup6\n        /* \"#utility.yul\":1749:1771   */\n      add\n        /* \"#utility.yul\":1728:1781   */\n      tag_149\n      jump\t// in\n    tag_219:\n        /* \"#utility.yul\":1718:1781   */\n      swap2\n      pop\n        /* \"#utility.yul\":1674:1791   */\n      pop\n        /* \"#utility.yul\":1469:1798   */\n      swap3\n      swap2\n      pop\n      pop\n      jump\t// out\n        /* \"#utility.yul\":1804:1903   */\n    tag_150:\n        /* \"#utility.yul\":1856:1862   */\n      0x00\n        /* \"#utility.yul\":1890:1895   */\n      dup2\n        /* \"#utility.yul\":1884:1896   */\n      mload\n        /* \"#utility.yul\":1874:1896   */\n      swap1\n      pop\n        /* \"#utility.yul\":1804:1903   */\n      swap2\n      swap1\n      pop\n      jump\t// out\n        /* \"#utility.yul\":1909:2078   */\n    tag_151:\n        /* \"#utility.yul\":1993:2004   */\n      0x00\n        /* \"#utility.yul\":2027:2033   */\n      dup3\n        /* \"#utility.yul\":2022:2025   */\n      dup3\n        /* \"#utility.yul\":2015:2034   */\n      mstore\n        /* \"#utility.yul\":2067:2071   */\n      0x20\n        /* \"#utility.yul\":2062:2065   */\n      dup3\n        /* \"#utility.yul\":2058:2072   */\n      add\n        /* \"#utility.yul\":2043:2072   */\n      swap1\n      pop\n        /* \"#utility.yul\":1909:2078   */\n      swap3\n      swap2\n      pop\n      pop\n      jump\t// out\n        /* \"#utility.yul\":2084:2223   */\n    tag_152:\n        /* \"#utility.yul\":2173:2179   */\n      dup3\n        /* \"#utility.yul\":2168:2171   */\n      dup2\n        /* \"#utility.yul\":2163:2166   */\n      dup4\n        /* \"#utility.yul\":2157:2180   */\n      mcopy\n        /* \"#utility.yul\":2214:2215   */\n      0x00\n        /* \"#utility.yul\":2205:2211   */\n      dup4\n        /* \"#utility.yul\":2200:2203   */\n      dup4\n        /* \"#utility.yul\":2196:2212   */\n      add\n        /* \"#utility.yul\":2189:2216   */\n      mstore\n        /* \"#utility.yul\":2084:2223   */\n      pop\n      pop\n      pop\n      jump\t// out\n        /* \"#utility.yul\":2229:2331   */\n    tag_153:\n        /* \"#utility.yul\":2270:2276   */\n      0x00\n        /* \"#utility.yul\":2321:2323   */\n      0x1f\n        /* \"#utility.yul\":2317:2324   */\n      not\n        /* \"#utility.yul\":2312:2314   */\n      0x1f\n        /* \"#utility.yul\":2305:2310   */\n      dup4\n        /* \"#utility.yul\":2301:2315   */\n      add\n        /* \"#utility.yul\":2297:2325   */\n      and\n        /* \"#utility.yul\":2287:2325   */\n      swap1\n      pop\n        /* \"#utility.yul\":2229:2331   */\n      swap2\n      swap1\n      pop\n      jump\t// out\n        /* \"#utility.yul\":2337:2714   */\n    tag_154:\n        /* \"#utility.yul\":2425:2428   */\n      0x00\n        /* \"#utility.yul\":2453:2492   */\n      tag_225\n        /* \"#utility.yul\":2486:2491   */\n      dup3\n        /* \"#utility.yul\":2453:2492   */\n      tag_150\n      jump\t// in\n    tag_225:\n        /* \"#utility.yul\":2508:2579   */\n      tag_226\n        /* \"#utility.yul\":2572:2578   */\n      dup2\n        /* \"#utility.yul\":2567:2570   */\n      dup6\n        /* \"#utility.yul\":2508:2579   */\n      tag_151\n      jump\t// in\n    tag_226:\n        /* \"#utility.yul\":2501:2579   */\n      swap4\n      pop\n        /* \"#utility.yul\":2588:2653   */\n      tag_227\n        /* \"#utility.yul\":2646:2652   */\n      dup2\n        /* \"#utility.yul\":2641:2644   */\n      dup6\n        /* \"#utility.yul\":2634:2638   */\n      0x20\n        /* \"#utility.yul\":2627:2632   */\n      dup7\n        /* \"#utility.yul\":2623:2639   */\n      add\n        /* \"#utility.yul\":2588:2653   */\n      tag_152\n      jump\t// in\n    tag_227:\n        /* \"#utility.yul\":2678:2707   */\n      tag_228\n        /* \"#utility.yul\":2700:2706   */\n      dup2\n        /* \"#utility.yul\":2678:2707   */\n      tag_153\n      jump\t// in\n    tag_228:\n        /* \"#utility.yul\":2673:2676   */\n      dup5\n        /* \"#utility.yul\":2669:2708   */\n      add\n        /* \"#utility.yul\":2662:2708   */\n      swap2\n      pop\n        /* \"#utility.yul\":2429:2714   */\n      pop\n        /* \"#utility.yul\":2337:2714   */\n      swap3\n      swap2\n      pop\n      pop\n      jump\t// out\n        /* \"#utility.yul\":2720:3033   */\n    tag_39:\n        /* \"#utility.yul\":2833:2837   */\n      0x00\n        /* \"#utility.yul\":2871:2873   */\n      0x20\n        /* \"#utility.yul\":2860:2869   */\n      dup3\n        /* \"#utility.yul\":2856:2874   */\n      add\n        /* \"#utility.yul\":2848:2874   */\n      swap1\n      pop\n        /* \"#utility.yul\":2920:2929   */\n      dup2\n        /* \"#utility.yul\":2914:2918   */\n      dup2\n        /* \"#utility.yul\":2910:2930   */\n      sub\n        /* \"#utility.yul\":2906:2907   */\n      0x00\n        /* \"#utility.yul\":2895:2904   */\n      dup4\n        /* \"#utility.yul\":2891:2908   */\n      add\n        /* \"#utility.yul\":2884:2931   */\n      mstore\n        /* \"#utility.yul\":2948:3026   */\n      tag_230\n        /* \"#utility.yul\":3021:3025   */\n      dup2\n        /* \"#utility.yul\":3012:3018   */\n      dup5\n        /* \"#utility.yul\":2948:3026   */\n      tag_154\n      jump\t// in\n    tag_230:\n        /* \"#utility.yul\":2940:3026   */\n      swap1\n      pop\n        /* \"#utility.yul\":2720:3033   */\n      swap3\n      swap2\n      pop\n      pop\n      jump\t// out\n        /* \"#utility.yul\":3039:3156   */\n    tag_155:\n        /* \"#utility.yul\":3148:3149   */\n      0x00\n        /* \"#utility.yul\":3145:3146   */\n      dup1\n        /* \"#utility.yul\":3138:3150   */\n      revert\n        /* \"#utility.yul\":3162:3279   */\n    tag_156:\n        /* \"#utility.yul\":3271:3272   */\n      0x00\n        /* \"#utility.yul\":3268:3269   */\n      dup1\n        /* \"#utility.yul\":3261:3273   */\n      revert\n        /* \"#utility.yul\":3285:3465   */\n    tag_157:\n        /* \"#utility.yul\":3333:3410   */\n      0x4e487b7100000000000000000000000000000000000000000000000000000000\n        /* \"#utility.yul\":3330:3331   */\n      0x00\n        /* \"#utility.yul\":3323:3411   */\n      mstore\n        /* \"#utility.yul\":3430:3434   */\n      0x41\n        /* \"#utility.yul\":3427:3428   */\n      0x04\n        /* \"#utility.yul\":3420:3435   */\n      mstore\n        /* \"#utility.yul\":3454:3458   */\n      0x24\n        /* \"#utility.yul\":3451:3452   */\n      0x00\n        /* \"#utility.yul\":3444:3459   */\n      revert\n        /* \"#utility.yul\":3471:3752   */\n    tag_158:\n        /* \"#utility.yul\":3554:3581   */\n      tag_235\n        /* \"#utility.yul\":3576:3580   */\n      dup3\n        /* \"#utility.yul\":3554:3581   */\n      tag_153\n      jump\t// in\n    tag_235:\n        /* \"#utility.yul\":3546:3552   */\n      dup2\n        /* \"#utility.yul\":3542:3582   */\n      add\n        /* \"#utility.yul\":3684:3690   */\n      dup2\n        /* \"#utility.yul\":3672:3682   */\n      dup2\n        /* \"#utility.yul\":3669:3691   */\n      lt\n        /* \"#utility.yul\":3648:3666   */\n      0xffffffffffffffff\n        /* \"#utility.yul\":3636:3646   */\n      dup3\n        /* \"#utility.yul\":3633:3667   */\n      gt\n        /* \"#utility.yul\":3630:3692   */\n      or\n        /* \"#utility.yul\":3627:3715   */\n      iszero\n      tag_236\n      jumpi\n        /* \"#utility.yul\":3695:3713   */\n      tag_237\n      tag_157\n      jump\t// in\n    tag_237:\n        /* \"#utility.yul\":3627:3715   */\n    tag_236:\n        /* \"#utility.yul\":3735:3745   */\n      dup1\n        /* \"#utility.yul\":3731:3733   */\n      0x40\n        /* \"#utility.yul\":3724:3746   */\n      mstore\n        /* \"#utility.yul\":3514:3752   */\n      pop\n        /* \"#utility.yul\":3471:3752   */\n      pop\n      pop\n      jump\t// out\n        /* \"#utility.yul\":3758:3887   */\n    tag_159:\n        /* \"#utility.yul\":3792:3798   */\n      0x00\n        /* \"#utility.yul\":3819:3839   */\n      tag_239\n      tag_145\n      jump\t// in\n    tag_239:\n        /* \"#utility.yul\":3809:3839   */\n      swap1\n      pop\n        /* \"#utility.yul\":3848:3881   */\n      tag_240\n        /* \"#utility.yul\":3876:3880   */\n      dup3\n        /* \"#utility.yul\":3868:3874   */\n      dup3\n        /* \"#utility.yul\":3848:3881   */\n      tag_158\n      jump\t// in\n    tag_240:\n        /* \"#utility.yul\":3758:3887   */\n      swap2\n      swap1\n      pop\n      jump\t// out\n        /* \"#utility.yul\":3893:4201   */\n    tag_160:\n        /* \"#utility.yul\":3955:3959   */\n      0x00\n        /* \"#utility.yul\":4045:4063   */\n      0xffffffffffffffff\n        /* \"#utility.yul\":4037:4043   */\n      dup3\n        /* \"#utility.yul\":4034:4064   */\n      gt\n        /* \"#utility.yul\":4031:4087   */\n      iszero\n      tag_242\n      jumpi\n        /* \"#utility.yul\":4067:4085   */\n      tag_243\n      tag_157\n      jump\t// in\n    tag_243:\n        /* \"#utility.yul\":4031:4087   */\n    tag_242:\n        /* \"#utility.yul\":4105:4134   */\n      tag_244\n        /* \"#utility.yul\":4127:4133   */\n      dup3\n        /* \"#utility.yul\":4105:4134   */\n      tag_153\n      jump\t// in\n    tag_244:\n        /* \"#utility.yul\":4097:4134   */\n      swap1\n      pop\n        /* \"#utility.yul\":4189:4193   */\n      0x20\n        /* \"#utility.yul\":4183:4187   */\n      dup2\n        /* \"#utility.yul\":4179:4194   */\n      add\n        /* \"#utility.yul\":4171:4194   */\n      swap1\n      pop\n        /* \"#utility.yul\":3893:4201   */\n      swap2\n      swap1\n      pop\n      jump\t// out\n        /* \"#utility.yul\":4207:4355   */\n    tag_161:\n        /* \"#utility.yul\":4305:4311   */\n      dup3\n        /* \"#utility.yul\":4300:4303   */\n      dup2\n        /* \"#utility.yul\":4295:4298   */\n      dup4\n        /* \"#utility.yul\":4282:4312   */\n      calldatacopy\n        /* \"#utility.yul\":4346:4347   */\n      0x00\n        /* \"#utility.yul\":4337:4343   */\n      dup4\n        /* \"#utility.yul\":4332:4335   */\n      dup4\n        /* \"#utility.yul\":4328:4344   */\n      add\n        /* \"#utility.yul\":4321:4348   */\n      mstore\n        /* \"#utility.yul\":4207:4355   */\n      pop\n      pop\n      pop\n      jump\t// out\n        /* \"#utility.yul\":4361:4786   */\n    tag_162:\n        /* \"#utility.yul\":4439:4444   */\n      0x00\n        /* \"#utility.yul\":4464:4530   */\n      tag_247\n        /* \"#utility.yul\":4480:4529   */\n      tag_248\n        /* \"#utility.yul\":4522:4528   */\n      dup5\n        /* \"#utility.yul\":4480:4529   */\n      tag_160\n      jump\t// in\n    tag_248:\n        /* \"#utility.yul\":4464:4530   */\n      tag_159\n      jump\t// in\n    tag_247:\n        /* \"#utility.yul\":4455:4530   */\n      swap1\n      pop\n        /* \"#utility.yul\":4553:4559   */\n      dup3\n        /* \"#utility.yul\":4546:4551   */\n      dup2\n        /* \"#utility.yul\":4539:4560   */\n      mstore\n        /* \"#utility.yul\":4591:4595   */\n      0x20\n        /* \"#utility.yul\":4584:4589   */\n      dup2\n        /* \"#utility.yul\":4580:4596   */\n      add\n        /* \"#utility.yul\":4629:4632   */\n      dup5\n        /* \"#utility.yul\":4620:4626   */\n      dup5\n        /* \"#utility.yul\":4615:4618   */\n      dup5\n        /* \"#utility.yul\":4611:4627   */\n      add\n        /* \"#utility.yul\":4608:4633   */\n      gt\n        /* \"#utility.yul\":4605:4717   */\n      iszero\n      tag_249\n      jumpi\n        /* \"#utility.yul\":4636:4715   */\n      tag_250\n      tag_156\n      jump\t// in\n    tag_250:\n        /* \"#utility.yul\":4605:4717   */\n    tag_249:\n        /* \"#utility.yul\":4726:4780   */\n      tag_251\n        /* \"#utility.yul\":4773:4779   */\n      dup5\n        /* \"#utility.yul\":4768:4771   */\n      dup3\n        /* \"#utility.yul\":4763:4766   */\n      dup6\n        /* \"#utility.yul\":4726:4780   */\n      tag_161\n      jump\t// in\n    tag_251:\n        /* \"#utility.yul\":4445:4786   */\n      pop\n        /* \"#utility.yul\":4361:4786   */\n      swap4\n      swap3\n      pop\n      pop\n      pop\n      jump\t// out\n        /* \"#utility.yul\":4806:5146   */\n    tag_163:\n        /* \"#utility.yul\":4862:4867   */\n      0x00\n        /* \"#utility.yul\":4911:4914   */\n      dup3\n        /* \"#utility.yul\":4904:4908   */\n      0x1f\n        /* \"#utility.yul\":4896:4902   */\n      dup4\n        /* \"#utility.yul\":4892:4909   */\n      add\n        /* \"#utility.yul\":4888:4915   */\n      slt\n        /* \"#utility.yul\":4878:5000   */\n      tag_253\n      jumpi\n        /* \"#utility.yul\":4919:4998   */\n      tag_254\n      tag_155\n      jump\t// in\n    tag_254:\n        /* \"#utility.yul\":4878:5000   */\n    tag_253:\n        /* \"#utility.yul\":5036:5042   */\n      dup2\n        /* \"#utility.yul\":5023:5043   */\n      calldataload\n        /* \"#utility.yul\":5061:5140   */\n      tag_255\n        /* \"#utility.yul\":5136:5139   */\n      dup5\n        /* \"#utility.yul\":5128:5134   */\n      dup3\n        /* \"#utility.yul\":5121:5125   */\n      0x20\n        /* \"#utility.yul\":5113:5119   */\n      dup7\n        /* \"#utility.yul\":5109:5126   */\n      add\n        /* \"#utility.yul\":5061:5140   */\n      tag_162\n      jump\t// in\n    tag_255:\n        /* \"#utility.yul\":5052:5140   */\n      swap2\n      pop\n        /* \"#utility.yul\":4868:5146   */\n      pop\n        /* \"#utility.yul\":4806:5146   */\n      swap3\n      swap2\n      pop\n      pop\n      jump\t// out\n        /* \"#utility.yul\":5152:5806   */\n    tag_45:\n        /* \"#utility.yul\":5230:5236   */\n      0x00\n        /* \"#utility.yul\":5238:5244   */\n      dup1\n        /* \"#utility.yul\":5287:5289   */\n      0x40\n        /* \"#utility.yul\":5275:5284   */\n      dup4\n        /* \"#utility.yul\":5266:5273   */\n      dup6\n        /* \"#utility.yul\":5262:5285   */\n      sub\n        /* \"#utility.yul\":5258:5290   */\n      slt\n        /* \"#utility.yul\":5255:5374   */\n      iszero\n      tag_257\n      jumpi\n        /* \"#utility.yul\":5293:5372   */\n      tag_258\n      tag_146\n      jump\t// in\n    tag_258:\n        /* \"#utility.yul\":5255:5374   */\n    tag_257:\n        /* \"#utility.yul\":5441:5442   */\n      0x00\n        /* \"#utility.yul\":5430:5439   */\n      dup4\n        /* \"#utility.yul\":5426:5443   */\n      add\n        /* \"#utility.yul\":5413:5444   */\n      calldataload\n        /* \"#utility.yul\":5471:5489   */\n      0xffffffffffffffff\n        /* \"#utility.yul\":5463:5469   */\n      dup2\n        /* \"#utility.yul\":5460:5490   */\n      gt\n        /* \"#utility.yul\":5457:5574   */\n      iszero\n      tag_259\n      jumpi\n        /* \"#utility.yul\":5493:5572   */\n      tag_260\n      tag_147\n      jump\t// in\n    tag_260:\n        /* \"#utility.yul\":5457:5574   */\n    tag_259:\n        /* \"#utility.yul\":5598:5661   */\n      tag_261\n        /* \"#utility.yul\":5653:5660   */\n      dup6\n        /* \"#utility.yul\":5644:5650   */\n      dup3\n        /* \"#utility.yul\":5633:5642   */\n      dup7\n        /* \"#utility.yul\":5629:5651   */\n      add\n        /* \"#utility.yul\":5598:5661   */\n      tag_163\n      jump\t// in\n    tag_261:\n        /* \"#utility.yul\":5588:5661   */\n      swap3\n      pop\n        /* \"#utility.yul\":5384:5671   */\n      pop\n        /* \"#utility.yul\":5710:5712   */\n      0x20\n        /* \"#utility.yul\":5736:5789   */\n      tag_262\n        /* \"#utility.yul\":5781:5788   */\n      dup6\n        /* \"#utility.yul\":5772:5778   */\n      dup3\n        /* \"#utility.yul\":5761:5770   */\n      dup7\n        /* \"#utility.yul\":5757:5779   */\n      add\n        /* \"#utility.yul\":5736:5789   */\n      tag_149\n      jump\t// in\n    tag_262:\n        /* \"#utility.yul\":5726:5789   */\n      swap2\n      pop\n        /* \"#utility.yul\":5681:5799   */\n      pop\n        /* \"#utility.yul\":5152:5806   */\n      swap3\n      pop\n      swap3\n      swap1\n      pop\n      jump\t// out\n        /* \"#utility.yul\":5812:6235   */\n    tag_56:\n        /* \"#utility.yul\":5953:5957   */\n      0x00\n        /* \"#utility.yul\":5991:5993   */\n      0x40\n        /* \"#utility.yul\":5980:5989   */\n      dup3\n        /* \"#utility.yul\":5976:5994   */\n      add\n        /* \"#utility.yul\":5968:5994   */\n      swap1\n      pop\n        /* \"#utility.yul\":6040:6049   */\n      dup2\n        /* \"#utility.yul\":6034:6038   */\n      dup2\n        /* \"#utility.yul\":6030:6050   */\n      sub\n        /* \"#utility.yul\":6026:6027   */\n      0x00\n        /* \"#utility.yul\":6015:6024   */\n      dup4\n        /* \"#utility.yul\":6011:6028   */\n      add\n        /* \"#utility.yul\":6004:6051   */\n      mstore\n        /* \"#utility.yul\":6068:6146   */\n      tag_264\n        /* \"#utility.yul\":6141:6145   */\n      dup2\n        /* \"#utility.yul\":6132:6138   */\n      dup6\n        /* \"#utility.yul\":6068:6146   */\n      tag_154\n      jump\t// in\n    tag_264:\n        /* \"#utility.yul\":6060:6146   */\n      swap1\n      pop\n        /* \"#utility.yul\":6156:6228   */\n      tag_265\n        /* \"#utility.yul\":6224:6226   */\n      0x20\n        /* \"#utility.yul\":6213:6222   */\n      dup4\n        /* \"#utility.yul\":6209:6227   */\n      add\n        /* \"#utility.yul\":6200:6206   */\n      dup5\n        /* \"#utility.yul\":6156:6228   */\n      tag_142\n      jump\t// in\n    tag_265:\n        /* \"#utility.yul\":5812:6235   */\n      swap4\n      swap3\n      pop\n      pop\n      pop\n      jump\t// out\n        /* \"#utility.yul\":6241:6358   */\n    tag_164:\n        /* \"#utility.yul\":6350:6351   */\n      0x00\n        /* \"#utility.yul\":6347:6348   */\n      dup1\n        /* \"#utility.yul\":6340:6352   */\n      revert\n        /* \"#utility.yul\":6364:6481   */\n    tag_165:\n        /* \"#utility.yul\":6473:6474   */\n      0x00\n        /* \"#utility.yul\":6470:6471   */\n      dup1\n        /* \"#utility.yul\":6463:6475   */\n      revert\n        /* \"#utility.yul\":6501:7054   */\n    tag_166:\n        /* \"#utility.yul\":6559:6567   */\n      0x00\n        /* \"#utility.yul\":6569:6575   */\n      dup1\n        /* \"#utility.yul\":6619:6622   */\n      dup4\n        /* \"#utility.yul\":6612:6616   */\n      0x1f\n        /* \"#utility.yul\":6604:6610   */\n      dup5\n        /* \"#utility.yul\":6600:6617   */\n      add\n        /* \"#utility.yul\":6596:6623   */\n      slt\n        /* \"#utility.yul\":6586:6708   */\n      tag_269\n      jumpi\n        /* \"#utility.yul\":6627:6706   */\n      tag_270\n      tag_155\n      jump\t// in\n    tag_270:\n        /* \"#utility.yul\":6586:6708   */\n    tag_269:\n        /* \"#utility.yul\":6740:6746   */\n      dup3\n        /* \"#utility.yul\":6727:6747   */\n      calldataload\n        /* \"#utility.yul\":6717:6747   */\n      swap1\n      pop\n        /* \"#utility.yul\":6770:6788   */\n      0xffffffffffffffff\n        /* \"#utility.yul\":6762:6768   */\n      dup2\n        /* \"#utility.yul\":6759:6789   */\n      gt\n        /* \"#utility.yul\":6756:6873   */\n      iszero\n      tag_271\n      jumpi\n        /* \"#utility.yul\":6792:6871   */\n      tag_272\n      tag_164\n      jump\t// in\n    tag_272:\n        /* \"#utility.yul\":6756:6873   */\n    tag_271:\n        /* \"#utility.yul\":6906:6910   */\n      0x20\n        /* \"#utility.yul\":6898:6904   */\n      dup4\n        /* \"#utility.yul\":6894:6911   */\n      add\n        /* \"#utility.yul\":6882:6911   */\n      swap2\n      pop\n        /* \"#utility.yul\":6960:6963   */\n      dup4\n        /* \"#utility.yul\":6952:6956   */\n      0x01\n        /* \"#utility.yul\":6944:6950   */\n      dup3\n        /* \"#utility.yul\":6940:6957   */\n      mul\n        /* \"#utility.yul\":6930:6938   */\n      dup4\n        /* \"#utility.yul\":6926:6958   */\n      add\n        /* \"#utility.yul\":6923:6964   */\n      gt\n        /* \"#utility.yul\":6920:7048   */\n      iszero\n      tag_273\n      jumpi\n        /* \"#utility.yul\":6967:7046   */\n      tag_274\n      tag_165\n      jump\t// in\n    tag_274:\n        /* \"#utility.yul\":6920:7048   */\n    tag_273:\n        /* \"#utility.yul\":6501:7054   */\n      swap3\n      pop\n      swap3\n      swap1\n      pop\n      jump\t// out\n        /* \"#utility.yul\":7060:7589   */\n    tag_65:\n        /* \"#utility.yul\":7131:7137   */\n      0x00\n        /* \"#utility.yul\":7139:7145   */\n      dup1\n        /* \"#utility.yul\":7188:7190   */\n      0x20\n        /* \"#utility.yul\":7176:7185   */\n      dup4\n        /* \"#utility.yul\":7167:7174   */\n      dup6\n        /* \"#utility.yul\":7163:7186   */\n      sub\n        /* \"#utility.yul\":7159:7191   */\n      slt\n        /* \"#utility.yul\":7156:7275   */\n      iszero\n      tag_276\n      jumpi\n        /* \"#utility.yul\":7194:7273   */\n      tag_277\n      tag_146\n      jump\t// in\n    tag_277:\n        /* \"#utility.yul\":7156:7275   */\n    tag_276:\n        /* \"#utility.yul\":7342:7343   */\n      0x00\n        /* \"#utility.yul\":7331:7340   */\n      dup4\n        /* \"#utility.yul\":7327:7344   */\n      add\n        /* \"#utility.yul\":7314:7345   */\n      calldataload\n        /* \"#utility.yul\":7372:7390   */\n      0xffffffffffffffff\n        /* \"#utility.yul\":7364:7370   */\n      dup2\n        /* \"#utility.yul\":7361:7391   */\n      gt\n        /* \"#utility.yul\":7358:7475   */\n      iszero\n      tag_278\n      jumpi\n        /* \"#utility.yul\":7394:7473   */\n      tag_279\n      tag_147\n      jump\t// in\n    tag_279:\n        /* \"#utility.yul\":7358:7475   */\n    tag_278:\n        /* \"#utility.yul\":7507:7572   */\n      tag_280\n        /* \"#utility.yul\":7564:7571   */\n      dup6\n        /* \"#utility.yul\":7555:7561   */\n      dup3\n        /* \"#utility.yul\":7544:7553   */\n      dup7\n        /* \"#utility.yul\":7540:7562   */\n      add\n        /* \"#utility.yul\":7507:7572   */\n      tag_166\n      jump\t// in\n    tag_280:\n        /* \"#utility.yul\":7489:7572   */\n      swap3\n      pop\n      swap3\n      pop\n        /* \"#utility.yul\":7285:7582   */\n      pop\n        /* \"#utility.yul\":7060:7589   */\n      swap3\n      pop\n      swap3\n      swap1\n      pop\n      jump\t// out\n        /* \"#utility.yul\":7595:7775   */\n    tag_95:\n        /* \"#utility.yul\":7643:7720   */\n      0x4e487b7100000000000000000000000000000000000000000000000000000000\n        /* \"#utility.yul\":7640:7641   */\n      0x00\n        /* \"#utility.yul\":7633:7721   */\n      mstore\n        /* \"#utility.yul\":7740:7744   */\n      0x21\n        /* \"#utility.yul\":7737:7738   */\n      0x04\n        /* \"#utility.yul\":7730:7745   */\n      mstore\n        /* \"#utility.yul\":7764:7768   */\n      0x24\n        /* \"#utility.yul\":7761:7762   */\n      0x00\n        /* \"#utility.yul\":7754:7769   */\n      revert\n        /* \"#utility.yul\":7781:7902   */\n    tag_167:\n        /* \"#utility.yul\":7870:7871   */\n      0x02\n        /* \"#utility.yul\":7863:7868   */\n      dup2\n        /* \"#utility.yul\":7860:7872   */\n      lt\n        /* \"#utility.yul\":7850:7896   */\n      tag_283\n      jumpi\n        /* \"#utility.yul\":7876:7894   */\n      tag_284\n      tag_95\n      jump\t// in\n    tag_284:\n        /* \"#utility.yul\":7850:7896   */\n    tag_283:\n        /* \"#utility.yul\":7781:7902   */\n      pop\n      jump\t// out\n        /* \"#utility.yul\":7908:8051   */\n    tag_168:\n        /* \"#utility.yul\":7961:7968   */\n      0x00\n        /* \"#utility.yul\":7990:7995   */\n      dup2\n        /* \"#utility.yul\":7979:7995   */\n      swap1\n      pop\n        /* \"#utility.yul\":7996:8045   */\n      tag_286\n        /* \"#utility.yul\":8039:8044   */\n      dup3\n        /* \"#utility.yul\":7996:8045   */\n      tag_167\n      jump\t// in\n    tag_286:\n        /* \"#utility.yul\":7908:8051   */\n      swap2\n      swap1\n      pop\n      jump\t// out\n        /* \"#utility.yul\":8057:8200   */\n    tag_169:\n        /* \"#utility.yul\":8121:8130   */\n      0x00\n        /* \"#utility.yul\":8154:8194   */\n      tag_288\n        /* \"#utility.yul\":8188:8193   */\n      dup3\n        /* \"#utility.yul\":8154:8194   */\n      tag_168\n      jump\t// in\n    tag_288:\n        /* \"#utility.yul\":8141:8194   */\n      swap1\n      pop\n        /* \"#utility.yul\":8057:8200   */\n      swap2\n      swap1\n      pop\n      jump\t// out\n        /* \"#utility.yul\":8206:8365   */\n    tag_170:\n        /* \"#utility.yul\":8307:8358   */\n      tag_290\n        /* \"#utility.yul\":8352:8357   */\n      dup2\n        /* \"#utility.yul\":8307:8358   */\n      tag_169\n      jump\t// in\n    tag_290:\n        /* \"#utility.yul\":8302:8305   */\n      dup3\n        /* \"#utility.yul\":8295:8359   */\n      mstore\n        /* \"#utility.yul\":8206:8365   */\n      pop\n      pop\n      jump\t// out\n        /* \"#utility.yul\":8371:8621   */\n    tag_76:\n        /* \"#utility.yul\":8478:8482   */\n      0x00\n        /* \"#utility.yul\":8516:8518   */\n      0x20\n        /* \"#utility.yul\":8505:8514   */\n      dup3\n        /* \"#utility.yul\":8501:8519   */\n      add\n        /* \"#utility.yul\":8493:8519   */\n      swap1\n      pop\n        /* \"#utility.yul\":8529:8614   */\n      tag_292\n        /* \"#utility.yul\":8611:8612   */\n      0x00\n        /* \"#utility.yul\":8600:8609   */\n      dup4\n        /* \"#utility.yul\":8596:8613   */\n      add\n        /* \"#utility.yul\":8587:8593   */\n      dup5\n        /* \"#utility.yul\":8529:8614   */\n      tag_170\n      jump\t// in\n    tag_292:\n        /* \"#utility.yul\":8371:8621   */\n      swap3\n      swap2\n      pop\n      pop\n      jump\t// out\n        /* \"#utility.yul\":8627:8807   */\n    tag_171:\n        /* \"#utility.yul\":8675:8752   */\n      0x4e487b7100000000000000000000000000000000000000000000000000000000\n        /* \"#utility.yul\":8672:8673   */\n      0x00\n        /* \"#utility.yul\":8665:8753   */\n      mstore\n        /* \"#utility.yul\":8772:8776   */\n      0x11\n        /* \"#utility.yul\":8769:8770   */\n      0x04\n        /* \"#utility.yul\":8762:8777   */\n      mstore\n        /* \"#utility.yul\":8796:8800   */\n      0x24\n        /* \"#utility.yul\":8793:8794   */\n      0x00\n        /* \"#utility.yul\":8786:8801   */\n      revert\n        /* \"#utility.yul\":8813:9004   */\n    tag_89:\n        /* \"#utility.yul\":8853:8856   */\n      0x00\n        /* \"#utility.yul\":8872:8892   */\n      tag_295\n        /* \"#utility.yul\":8890:8891   */\n      dup3\n        /* \"#utility.yul\":8872:8892   */\n      tag_141\n      jump\t// in\n    tag_295:\n        /* \"#utility.yul\":8867:8892   */\n      swap2\n      pop\n        /* \"#utility.yul\":8906:8926   */\n      tag_296\n        /* \"#utility.yul\":8924:8925   */\n      dup4\n        /* \"#utility.yul\":8906:8926   */\n      tag_141\n      jump\t// in\n    tag_296:\n        /* \"#utility.yul\":8901:8926   */\n      swap3\n      pop\n        /* \"#utility.yul\":8949:8950   */\n      dup3\n        /* \"#utility.yul\":8946:8947   */\n      dup3\n        /* \"#utility.yul\":8942:8951   */\n      add\n        /* \"#utility.yul\":8935:8951   */\n      swap1\n      pop\n        /* \"#utility.yul\":8970:8973   */\n      dup1\n        /* \"#utility.yul\":8967:8968   */\n      dup3\n        /* \"#utility.yul\":8964:8974   */\n      gt\n        /* \"#utility.yul\":8961:8997   */\n      iszero\n      tag_297\n      jumpi\n        /* \"#utility.yul\":8977:8995   */\n      tag_298\n      tag_171\n      jump\t// in\n    tag_298:\n        /* \"#utility.yul\":8961:8997   */\n    tag_297:\n        /* \"#utility.yul\":8813:9004   */\n      swap3\n      swap2\n      pop\n      pop\n      jump\t// out\n        /* \"#utility.yul\":9010:9243   */\n    tag_91:\n        /* \"#utility.yul\":9049:9052   */\n      0x00\n        /* \"#utility.yul\":9072:9096   */\n      tag_300\n        /* \"#utility.yul\":9090:9095   */\n      dup3\n        /* \"#utility.yul\":9072:9096   */\n      tag_141\n      jump\t// in\n    tag_300:\n        /* \"#utility.yul\":9063:9096   */\n      swap2\n      pop\n        /* \"#utility.yul\":9118:9184   */\n      0xffffffffffffffffffffffffffffffffffffffffffffffffffffffffffffffff\n        /* \"#utility.yul\":9111:9116   */\n      dup3\n        /* \"#utility.yul\":9108:9185   */\n      sub\n        /* \"#utility.yul\":9105:9208   */\n      tag_301\n      jumpi\n        /* \"#utility.yul\":9188:9206   */\n      tag_302\n      tag_171\n      jump\t// in\n    tag_302:\n        /* \"#utility.yul\":9105:9208   */\n    tag_301:\n        /* \"#utility.yul\":9235:9236   */\n      0x01\n        /* \"#utility.yul\":9228:9233   */\n      dup3\n        /* \"#utility.yul\":9224:9237   */\n      add\n        /* \"#utility.yul\":9217:9237   */\n      swap1\n      pop\n        /* \"#utility.yul\":9010:9243   */\n      swap2\n      swap1\n      pop\n      jump\t// out\n        /* \"#utility.yul\":9249:9375   */\n    tag_172:\n        /* \"#utility.yul\":9286:9293   */\n      0x00\n        /* \"#utility.yul\":9326:9368   */\n      0xffffffffffffffffffffffffffffffffffffffff\n        /* \"#utility.yul\":9319:9324   */\n      dup3\n        /* \"#utility.yul\":9315:9369   */\n      and\n        /* \"#utility.yul\":9304:9369   */\n      swap1\n      pop\n        /* \"#utility.yul\":9249:9375   */\n      swap2\n      swap1\n      pop\n      jump\t// out\n        /* \"#utility.yul\":9381:9477   */\n    tag_173:\n        /* \"#utility.yul\":9418:9425   */\n      0x00\n        /* \"#utility.yul\":9447:9471   */\n      tag_305\n        /* \"#utility.yul\":9465:9470   */\n      dup3\n        /* \"#utility.yul\":9447:9471   */\n      tag_172\n      jump\t// in\n    tag_305:\n        /* \"#utility.yul\":9436:9471   */\n      swap1\n      pop\n        /* \"#utility.yul\":9381:9477   */\n      swap2\n      swap1\n      pop\n      jump\t// out\n        /* \"#utility.yul\":9483:9601   */\n    tag_174:\n        /* \"#utility.yul\":9570:9594   */\n      tag_307\n        /* \"#utility.yul\":9588:9593   */\n      dup2\n        /* \"#utility.yul\":9570:9594   */\n      tag_173\n      jump\t// in\n    tag_307:\n        /* \"#utility.yul\":9565:9568   */\n      dup3\n        /* \"#utility.yul\":9558:9595   */\n      mstore\n        /* \"#utility.yul\":9483:9601   */\n      pop\n      pop\n      jump\t// out\n        /* \"#utility.yul\":9607:9939   */\n    tag_103:\n        /* \"#utility.yul\":9728:9732   */\n      0x00\n        /* \"#utility.yul\":9766:9768   */\n      0x40\n        /* \"#utility.yul\":9755:9764   */\n      dup3\n        /* \"#utility.yul\":9751:9769   */\n      add\n        /* \"#utility.yul\":9743:9769   */\n      swap1\n      pop\n        /* \"#utility.yul\":9779:9850   */\n      tag_309\n        /* \"#utility.yul\":9847:9848   */\n      0x00\n        /* \"#utility.yul\":9836:9845   */\n      dup4\n        /* \"#utility.yul\":9832:9849   */\n      add\n        /* \"#utility.yul\":9823:9829   */\n      dup6\n        /* \"#utility.yul\":9779:9850   */\n      tag_142\n      jump\t// in\n    tag_309:\n        /* \"#utility.yul\":9860:9932   */\n      tag_310\n        /* \"#utility.yul\":9928:9930   */\n      0x20\n        /* \"#utility.yul\":9917:9926   */\n      dup4\n        /* \"#utility.yul\":9913:9931   */\n      add\n        /* \"#utility.yul\":9904:9910   */\n      dup5\n        /* \"#utility.yul\":9860:9932   */\n      tag_174\n      jump\t// in\n    tag_310:\n        /* \"#utility.yul\":9607:9939   */\n      swap4\n      swap3\n      pop\n      pop\n      pop\n      jump\t// out\n        /* \"#utility.yul\":9945:10125   */\n    tag_175:\n        /* \"#utility.yul\":9993:10070   */\n      0x4e487b7100000000000000000000000000000000000000000000000000000000\n        /* \"#utility.yul\":9990:9991   */\n      0x00\n        /* \"#utility.yul\":9983:10071   */\n      mstore\n        /* \"#utility.yul\":10090:10094   */\n      0x22\n        /* \"#utility.yul\":10087:10088   */\n      0x04\n        /* \"#utility.yul\":10080:10095   */\n      mstore\n        /* \"#utility.yul\":10114:10118   */\n      0x24\n        /* \"#utility.yul\":10111:10112   */\n      0x00\n        /* \"#utility.yul\":10104:10119   */\n      revert\n        /* \"#utility.yul\":10131:10451   */\n    tag_117:\n        /* \"#utility.yul\":10175:10181   */\n      0x00\n        /* \"#utility.yul\":10212:10213   */\n      0x02\n        /* \"#utility.yul\":10206:10210   */\n      dup3\n        /* \"#utility.yul\":10202:10214   */\n      div\n        /* \"#utility.yul\":10192:10214   */\n      swap1\n      pop\n        /* \"#utility.yul\":10259:10260   */\n      0x01\n        /* \"#utility.yul\":10253:10257   */\n      dup3\n        /* \"#utility.yul\":10249:10261   */\n      and\n        /* \"#utility.yul\":10280:10298   */\n      dup1\n        /* \"#utility.yul\":10270:10351   */\n      tag_313\n      jumpi\n        /* \"#utility.yul\":10336:10340   */\n      0x7f\n        /* \"#utility.yul\":10328:10334   */\n      dup3\n        /* \"#utility.yul\":10324:10341   */\n      and\n        /* \"#utility.yul\":10314:10341   */\n      swap2\n      pop\n        /* \"#utility.yul\":10270:10351   */\n    tag_313:\n        /* \"#utility.yul\":10398:10400   */\n      0x20\n        /* \"#utility.yul\":10390:10396   */\n      dup3\n        /* \"#utility.yul\":10387:10401   */\n      lt\n        /* \"#utility.yul\":10367:10385   */\n      dup2\n        /* \"#utility.yul\":10364:10402   */\n      sub\n        /* \"#utility.yul\":10361:10445   */\n      tag_314\n      jumpi\n        /* \"#utility.yul\":10417:10435   */\n      tag_315\n      tag_175\n      jump\t// in\n    tag_315:\n        /* \"#utility.yul\":10361:10445   */\n    tag_314:\n        /* \"#utility.yul\":10182:10451   */\n      pop\n        /* \"#utility.yul\":10131:10451   */\n      swap2\n      swap1\n      pop\n      jump\t// out\n        /* \"#utility.yul\":10457:10598   */\n    tag_176:\n        /* \"#utility.yul\":10506:10510   */\n      0x00\n        /* \"#utility.yul\":10529:10532   */\n      dup2\n        /* \"#utility.yul\":10521:10532   */\n      swap1\n      pop\n        /* \"#utility.yul\":10552:10555   */\n      dup2\n        /* \"#utility.yul\":10549:10550   */\n      0x00\n        /* \"#utility.yul\":10542:10556   */\n      mstore\n        /* \"#utility.yul\":10586:10590   */\n      0x20\n        /* \"#utility.yul\":10583:10584   */\n      0x00\n        /* \"#utility.yul\":10573:10591   */\n      keccak256\n        /* \"#utility.yul\":10565:10591   */\n      swap1\n      pop\n        /* \"#utility.yul\":10457:10598   */\n      swap2\n      swap1\n      pop\n      jump\t// out\n        /* \"#utility.yul\":10604:10697   */\n    tag_177:\n        /* \"#utility.yul\":10641:10647   */\n      0x00\n        /* \"#utility.yul\":10688:10690   */\n      0x20\n        /* \"#utility.yul\":10683:10685   */\n      0x1f\n        /* \"#utility.yul\":10676:10681   */\n      dup4\n        /* \"#utility.yul\":10672:10686   */\n      add\n        /* \"#utility.yul\":10668:10691   */\n      div\n        /* \"#utility.yul\":10658:10691   */\n      swap1\n      pop\n        /* \"#utility.yul\":10604:10697   */\n      swap2\n      swap1\n      pop\n      jump\t// out\n        /* \"#utility.yul\":10703:10810   */\n    tag_178:\n        /* \"#utility.yul\":10747:10755   */\n      0x00\n        /* \"#utility.yul\":10797:10802   */\n      dup3\n        /* \"#utility.yul\":10791:10795   */\n      dup3\n        /* \"#utility.yul\":10787:10803   */\n      shl\n        /* \"#utility.yul\":10766:10803   */\n      swap1\n      pop\n        /* \"#utility.yul\":10703:10810   */\n      swap3\n      swap2\n      pop\n      pop\n      jump\t// out\n        /* \"#utility.yul\":10816:11209   */\n    tag_179:\n        /* \"#utility.yul\":10885:10891   */\n      0x00\n        /* \"#utility.yul\":10935:10936   */\n      0x08\n        /* \"#utility.yul\":10923:10933   */\n      dup4\n        /* \"#utility.yul\":10919:10937   */\n      mul\n        /* \"#utility.yul\":10958:11055   */\n      tag_320\n        /* \"#utility.yul\":10988:11054   */\n      0xffffffffffffffffffffffffffffffffffffffffffffffffffffffffffffffff\n        /* \"#utility.yul\":10977:10986   */\n      dup3\n        /* \"#utility.yul\":10958:11055   */\n      tag_178\n      jump\t// in\n    tag_320:\n        /* \"#utility.yul\":11076:11115   */\n      tag_321\n        /* \"#utility.yul\":11106:11114   */\n      dup7\n        /* \"#utility.yul\":11095:11104   */\n      dup4\n        /* \"#utility.yul\":11076:11115   */\n      tag_178\n      jump\t// in\n    tag_321:\n        /* \"#utility.yul\":11064:11115   */\n      swap6\n      pop\n        /* \"#utility.yul\":11148:11152   */\n      dup1\n        /* \"#utility.yul\":11144:11153   */\n      not\n        /* \"#utility.yul\":11137:11142   */\n      dup5\n        /* \"#utility.yul\":11133:11154   */\n      and\n        /* \"#utility.yul\":11124:11154   */\n      swap4\n      pop\n        /* \"#utility.yul\":11197:11201   */\n      dup1\n        /* \"#utility.yul\":11187:11195   */\n      dup7\n        /* \"#utility.yul\":11183:11202   */\n      and\n        /* \"#utility.yul\":11176:11181   */\n      dup5\n        /* \"#utility.yul\":11173:11203   */\n      or\n        /* \"#utility.yul\":11163:11203   */\n      swap3\n      pop\n        /* \"#utility.yul\":10892:11209   */\n      pop\n      pop\n        /* \"#utility.yul\":10816:11209   */\n      swap4\n      swap3\n      pop\n      pop\n      pop\n      jump\t// out\n        /* \"#utility.yul\":11215:11275   */\n    tag_180:\n        /* \"#utility.yul\":11243:11246   */\n      0x00\n        /* \"#utility.yul\":11264:11269   */\n      dup2\n        /* \"#utility.yul\":11257:11269   */\n      swap1\n      pop\n        /* \"#utility.yul\":11215:11275   */\n      swap2\n      swap1\n      pop\n      jump\t// out\n        /* \"#utility.yul\":11281:11423   */\n    tag_181:\n        /* \"#utility.yul\":11331:11340   */\n      0x00\n        /* \"#utility.yul\":11364:11417   */\n      tag_324\n        /* \"#utility.yul\":11382:11416   */\n      tag_325\n        /* \"#utility.yul\":11391:11415   */\n      tag_326\n        /* \"#utility.yul\":11409:11414   */\n      dup5\n        /* \"#utility.yul\":11391:11415   */\n      tag_141\n      jump\t// in\n    tag_326:\n        /* \"#utility.yul\":11382:11416   */\n      tag_180\n      jump\t// in\n    tag_325:\n        /* \"#utility.yul\":11364:11417   */\n      tag_141\n      jump\t// in\n    tag_324:\n        /* \"#utility.yul\":11351:11417   */\n      swap1\n      pop\n        /* \"#utility.yul\":11281:11423   */\n      swap2\n      swap1\n      pop\n      jump\t// out\n        /* \"#utility.yul\":11429:11504   */\n    tag_182:\n        /* \"#utility.yul\":11472:11475   */\n      0x00\n        /* \"#utility.yul\":11493:11498   */\n      dup2\n        /* \"#utility.yul\":11486:11498   */\n      swap1\n      pop\n        /* \"#utility.yul\":11429:11504   */\n      swap2\n      swap1\n      pop\n      jump\t// out\n        /* \"#utility.yul\":11510:11779   */\n    tag_183:\n        /* \"#utility.yul\":11620:11659   */\n      tag_329\n        /* \"#utility.yul\":11651:11658   */\n      dup4\n        /* \"#utility.yul\":11620:11659   */\n      tag_181\n      jump\t// in\n    tag_329:\n        /* \"#utility.yul\":11681:11772   */\n      tag_330\n        /* \"#utility.yul\":11730:11771   */\n      tag_331\n        /* \"#utility.yul\":11754:11770   */\n      dup3\n        /* \"#utility.yul\":11730:11771   */\n      tag_182\n      jump\t// in\n    tag_331:\n        /* \"#utility.yul\":11722:11728   */\n      dup5\n        /* \"#utility.yul\":11715:11719   */\n      dup5\n        /* \"#utility.yul\":11709:11720   */\n      sload\n        /* \"#utility.yul\":11681:11772   */\n      tag_179\n      jump\t// in\n    tag_330:\n        /* \"#utility.yul\":11675:11679   */\n      dup3\n        /* \"#utility.yul\":11668:11773   */\n      sstore\n        /* \"#utility.yul\":11586:11779   */\n      pop\n        /* \"#utility.yul\":11510:11779   */\n      pop\n      pop\n      pop\n      jump\t// out\n        /* \"#utility.yul\":11785:11858   */\n    tag_184:\n        /* \"#utility.yul\":11830:11833   */\n      0x00\n        /* \"#utility.yul\":11785:11858   */\n      swap1\n      jump\t// out\n        /* \"#utility.yul\":11864:12053   */\n    tag_185:\n        /* \"#utility.yul\":11941:11973   */\n      tag_334\n      tag_184\n      jump\t// in\n    tag_334:\n        /* \"#utility.yul\":11982:12047   */\n      tag_335\n        /* \"#utility.yul\":12040:12046   */\n      dup2\n        /* \"#utility.yul\":12032:12038   */\n      dup5\n        /* \"#utility.yul\":12026:12030   */\n      dup5\n        /* \"#utility.yul\":11982:12047   */\n      tag_183\n      jump\t// in\n    tag_335:\n        /* \"#utility.yul\":11917:12053   */\n      pop\n        /* \"#utility.yul\":11864:12053   */\n      pop\n      pop\n      jump\t// out\n        /* \"#utility.yul\":12059:12245   */\n    tag_186:\n        /* \"#utility.yul\":12119:12239   */\n    tag_337:\n        /* \"#utility.yul\":12136:12139   */\n      dup2\n        /* \"#utility.yul\":12129:12134   */\n      dup2\n        /* \"#utility.yul\":12126:12140   */\n      lt\n        /* \"#utility.yul\":12119:12239   */\n      iszero\n      tag_339\n      jumpi\n        /* \"#utility.yul\":12190:12229   */\n      tag_340\n        /* \"#utility.yul\":12227:12228   */\n      0x00\n        /* \"#utility.yul\":12220:12225   */\n      dup3\n        /* \"#utility.yul\":12190:12229   */\n      tag_185\n      jump\t// in\n    tag_340:\n        /* \"#utility.yul\":12163:12164   */\n      0x01\n        /* \"#utility.yul\":12156:12161   */\n      dup2\n        /* \"#utility.yul\":12152:12165   */\n      add\n        /* \"#utility.yul\":12143:12165   */\n      swap1\n      pop\n        /* \"#utility.yul\":12119:12239   */\n      jump(tag_337)\n    tag_339:\n        /* \"#utility.yul\":12059:12245   */\n      pop\n      pop\n      jump\t// out\n        /* \"#utility.yul\":12251:12794   */\n    tag_187:\n        /* \"#utility.yul\":12352:12354   */\n      0x1f\n        /* \"#utility.yul\":12347:12350   */\n      dup3\n        /* \"#utility.yul\":12344:12355   */\n      gt\n        /* \"#utility.yul\":12341:12787   */\n      iszero\n      tag_342\n      jumpi\n        /* \"#utility.yul\":12386:12424   */\n      tag_343\n        /* \"#utility.yul\":12418:12423   */\n      dup2\n        /* \"#utility.yul\":12386:12424   */\n      tag_176\n      jump\t// in\n    tag_343:\n        /* \"#utility.yul\":12470:12499   */\n      tag_344\n        /* \"#utility.yul\":12488:12498   */\n      dup5\n        /* \"#utility.yul\":12470:12499   */\n      tag_177\n      jump\t// in\n    tag_344:\n        /* \"#utility.yul\":12460:12468   */\n      dup2\n        /* \"#utility.yul\":12456:12500   */\n      add\n        /* \"#utility.yul\":12653:12655   */\n      0x20\n        /* \"#utility.yul\":12641:12651   */\n      dup6\n        /* \"#utility.yul\":12638:12656   */\n      lt\n        /* \"#utility.yul\":12635:12684   */\n      iszero\n      tag_345\n      jumpi\n        /* \"#utility.yul\":12674:12682   */\n      dup2\n        /* \"#utility.yul\":12659:12682   */\n      swap1\n      pop\n        /* \"#utility.yul\":12635:12684   */\n    tag_345:\n        /* \"#utility.yul\":12697:12777   */\n      tag_346\n        /* \"#utility.yul\":12753:12775   */\n      tag_347\n        /* \"#utility.yul\":12771:12774   */\n      dup6\n        /* \"#utility.yul\":12753:12775   */\n      tag_177\n      jump\t// in\n    tag_347:\n        /* \"#utility.yul\":12743:12751   */\n      dup4\n        /* \"#utility.yul\":12739:12776   */\n      add\n        /* \"#utility.yul\":12726:12737   */\n      dup3\n        /* \"#utility.yul\":12697:12777   */\n      tag_186\n      jump\t// in\n    tag_346:\n        /* \"#utility.yul\":12356:12787   */\n      pop\n      pop\n        /* \"#utility.yul\":12341:12787   */\n    tag_342:\n        /* \"#utility.yul\":12251:12794   */\n      pop\n      pop\n      pop\n      jump\t// out\n        /* \"#utility.yul\":12800:12917   */\n    tag_188:\n        /* \"#utility.yul\":12854:12862   */\n      0x00\n        /* \"#utility.yul\":12904:12909   */\n      dup3\n        /* \"#utility.yul\":12898:12902   */\n      dup3\n        /* \"#utility.yul\":12894:12910   */\n      shr\n        /* \"#utility.yul\":12873:12910   */\n      swap1\n      pop\n        /* \"#utility.yul\":12800:12917   */\n      swap3\n      swap2\n      pop\n      pop\n      jump\t// out\n        /* \"#utility.yul\":12923:13092   */\n    tag_189:\n        /* \"#utility.yul\":12967:12973   */\n      0x00\n        /* \"#utility.yul\":13000:13051   */\n      tag_350\n        /* \"#utility.yul\":13048:13049   */\n      0x00\n        /* \"#utility.yul\":13044:13050   */\n      not\n        /* \"#utility.yul\":13036:13041   */\n      dup5\n        /* \"#utility.yul\":13033:13034   */\n      0x08\n        /* \"#utility.yul\":13029:13042   */\n      mul\n        /* \"#utility.yul\":13000:13051   */\n      tag_188\n      jump\t// in\n    tag_350:\n        /* \"#utility.yul\":12996:13052   */\n      not\n        /* \"#utility.yul\":13081:13085   */\n      dup1\n        /* \"#utility.yul\":13075:13079   */\n      dup4\n        /* \"#utility.yul\":13071:13086   */\n      and\n        /* \"#utility.yul\":13061:13086   */\n      swap2\n      pop\n        /* \"#utility.yul\":12974:13092   */\n      pop\n        /* \"#utility.yul\":12923:13092   */\n      swap3\n      swap2\n      pop\n      pop\n      jump\t// out\n        /* \"#utility.yul\":13097:13392   */\n    tag_190:\n        /* \"#utility.yul\":13173:13177   */\n      0x00\n        /* \"#utility.yul\":13319:13348   */\n      tag_352\n        /* \"#utility.yul\":13344:13347   */\n      dup4\n        /* \"#utility.yul\":13338:13342   */\n      dup4\n        /* \"#utility.yul\":13319:13348   */\n      tag_189\n      jump\t// in\n    tag_352:\n        /* \"#utility.yul\":13311:13348   */\n      swap2\n      pop\n        /* \"#utility.yul\":13381:13384   */\n      dup3\n        /* \"#utility.yul\":13378:13379   */\n      0x02\n        /* \"#utility.yul\":13374:13385   */\n      mul\n        /* \"#utility.yul\":13368:13372   */\n      dup3\n        /* \"#utility.yul\":13365:13386   */\n      or\n        /* \"#utility.yul\":13357:13386   */\n      swap1\n      pop\n        /* \"#utility.yul\":13097:13392   */\n      swap3\n      swap2\n      pop\n      pop\n      jump\t// out\n        /* \"#utility.yul\":13397:14792   */\n    tag_107:\n        /* \"#utility.yul\":13514:13551   */\n      tag_354\n        /* \"#utility.yul\":13547:13550   */\n      dup3\n        /* \"#utility.yul\":13514:13551   */\n      tag_150\n      jump\t// in\n    tag_354:\n        /* \"#utility.yul\":13616:13634   */\n      0xffffffffffffffff\n        /* \"#utility.yul\":13608:13614   */\n      dup2\n        /* \"#utility.yul\":13605:13635   */\n      gt\n        /* \"#utility.yul\":13602:13658   */\n      iszero\n      tag_355\n      jumpi\n        /* \"#utility.yul\":13638:13656   */\n      tag_356\n      tag_157\n      jump\t// in\n    tag_356:\n        /* \"#utility.yul\":13602:13658   */\n    tag_355:\n        /* \"#utility.yul\":13682:13720   */\n      tag_357\n        /* \"#utility.yul\":13714:13718   */\n      dup3\n        /* \"#utility.yul\":13708:13719   */\n      sload\n        /* \"#utility.yul\":13682:13720   */\n      tag_117\n      jump\t// in\n    tag_357:\n        /* \"#utility.yul\":13767:13834   */\n      tag_358\n        /* \"#utility.yul\":13827:13833   */\n      dup3\n        /* \"#utility.yul\":13819:13825   */\n      dup3\n        /* \"#utility.yul\":13813:13817   */\n      dup6\n        /* \"#utility.yul\":13767:13834   */\n      tag_187\n      jump\t// in\n    tag_358:\n        /* \"#utility.yul\":13861:13862   */\n      0x00\n        /* \"#utility.yul\":13885:13889   */\n      0x20\n        /* \"#utility.yul\":13872:13889   */\n      swap1\n      pop\n        /* \"#utility.yul\":13917:13919   */\n      0x1f\n        /* \"#utility.yul\":13909:13915   */\n      dup4\n        /* \"#utility.yul\":13906:13920   */\n      gt\n        /* \"#utility.yul\":13934:13935   */\n      0x01\n        /* \"#utility.yul\":13929:14547   */\n      dup2\n      eq\n      tag_360\n      jumpi\n        /* \"#utility.yul\":14591:14592   */\n      0x00\n        /* \"#utility.yul\":14608:14614   */\n      dup5\n        /* \"#utility.yul\":14605:14682   */\n      iszero\n      tag_361\n      jumpi\n        /* \"#utility.yul\":14657:14666   */\n      dup3\n        /* \"#utility.yul\":14652:14655   */\n      dup8\n        /* \"#utility.yul\":14648:14667   */\n      add\n        /* \"#utility.yul\":14642:14668   */\n      mload\n        /* \"#utility.yul\":14633:14668   */\n      swap1\n      pop\n        /* \"#utility.yul\":14605:14682   */\n    tag_361:\n        /* \"#utility.yul\":14708:14775   */\n      tag_362\n        /* \"#utility.yul\":14768:14774   */\n      dup6\n        /* \"#utility.yul\":14761:14766   */\n      dup3\n        /* \"#utility.yul\":14708:14775   */\n      tag_190\n      jump\t// in\n    tag_362:\n        /* \"#utility.yul\":14702:14706   */\n      dup7\n        /* \"#utility.yul\":14695:14776   */\n      sstore\n        /* \"#utility.yul\":14564:14786   */\n      pop\n        /* \"#utility.yul\":13899:14786   */\n      jump(tag_359)\n        /* \"#utility.yul\":13929:14547   */\n    tag_360:\n        /* \"#utility.yul\":13981:13985   */\n      0x1f\n        /* \"#utility.yul\":13977:13986   */\n      not\n        /* \"#utility.yul\":13969:13975   */\n      dup5\n        /* \"#utility.yul\":13965:13987   */\n      and\n        /* \"#utility.yul\":14015:14052   */\n      tag_363\n        /* \"#utility.yul\":14047:14051   */\n      dup7\n        /* \"#utility.yul\":14015:14052   */\n      tag_176\n      jump\t// in\n    tag_363:\n        /* \"#utility.yul\":14074:14075   */\n      0x00\n        /* \"#utility.yul\":14088:14296   */\n    tag_364:\n        /* \"#utility.yul\":14102:14109   */\n      dup3\n        /* \"#utility.yul\":14099:14100   */\n      dup2\n        /* \"#utility.yul\":14096:14110   */\n      lt\n        /* \"#utility.yul\":14088:14296   */\n      iszero\n      tag_366\n      jumpi\n        /* \"#utility.yul\":14181:14190   */\n      dup5\n        /* \"#utility.yul\":14176:14179   */\n      dup10\n        /* \"#utility.yul\":14172:14191   */\n      add\n        /* \"#utility.yul\":14166:14192   */\n      mload\n        /* \"#utility.yul\":14158:14164   */\n      dup3\n        /* \"#utility.yul\":14151:14193   */\n      sstore\n        /* \"#utility.yul\":14232:14233   */\n      0x01\n        /* \"#utility.yul\":14224:14230   */\n      dup3\n        /* \"#utility.yul\":14220:14234   */\n      add\n        /* \"#utility.yul\":14210:14234   */\n      swap2\n      pop\n        /* \"#utility.yul\":14279:14281   */\n      0x20\n        /* \"#utility.yul\":14268:14277   */\n      dup6\n        /* \"#utility.yul\":14264:14282   */\n      add\n        /* \"#utility.yul\":14251:14282   */\n      swap5\n      pop\n        /* \"#utility.yul\":14125:14129   */\n      0x20\n        /* \"#utility.yul\":14122:14123   */\n      dup2\n        /* \"#utility.yul\":14118:14130   */\n      add\n        /* \"#utility.yul\":14113:14130   */\n      swap1\n      pop\n        /* \"#utility.yul\":14088:14296   */\n      jump(tag_364)\n    tag_366:\n        /* \"#utility.yul\":14324:14330   */\n      dup7\n        /* \"#utility.yul\":14315:14322   */\n      dup4\n        /* \"#utility.yul\":14312:14331   */\n      lt\n        /* \"#utility.yul\":14309:14488   */\n      iszero\n      tag_367\n      jumpi\n        /* \"#utility.yul\":14382:14391   */\n      dup5\n        /* \"#utility.yul\":14377:14380   */\n      dup10\n        /* \"#utility.yul\":14373:14392   */\n      add\n        /* \"#utility.yul\":14367:14393   */\n      mload\n        /* \"#utility.yul\":14425:14473   */\n      tag_368\n        /* \"#utility.yul\":14467:14471   */\n      0x1f\n        /* \"#utility.yul\":14459:14465   */\n      dup10\n        /* \"#utility.yul\":14455:14472   */\n      and\n        /* \"#utility.yul\":14444:14453   */\n      dup3\n        /* \"#utility.yul\":14425:14473   */\n      tag_189\n      jump\t// in\n    tag_368:\n        /* \"#utility.yul\":14417:14423   */\n      dup4\n        /* \"#utility.yul\":14410:14474   */\n      sstore\n        /* \"#utility.yul\":14332:14488   */\n      pop\n        /* \"#utility.yul\":14309:14488   */\n    tag_367:\n        /* \"#utility.yul\":14534:14535   */\n      0x01\n        /* \"#utility.yul\":14530:14531   */\n      0x02\n        /* \"#utility.yul\":14522:14528   */\n      dup9\n        /* \"#utility.yul\":14518:14532   */\n      mul\n        /* \"#utility.yul\":14514:14536   */\n      add\n        /* \"#utility.yul\":14508:14512   */\n      dup9\n        /* \"#utility.yul\":14501:14537   */\n      sstore\n        /* \"#utility.yul\":13936:14547   */\n      pop\n      pop\n      pop\n        /* \"#utility.yul\":13899:14786   */\n    tag_359:\n      pop\n        /* \"#utility.yul\":13489:14792   */\n      pop\n      pop\n      pop\n        /* \"#utility.yul\":13397:14792   */\n      pop\n      pop\n      jump\t// out\n        /* \"#utility.yul\":14798:14946   */\n    tag_191:\n        /* \"#utility.yul\":14900:14911   */\n      0x00\n        /* \"#utility.yul\":14937:14940   */\n      dup2\n        /* \"#utility.yul\":14922:14940   */\n      swap1\n      pop\n        /* \"#utility.yul\":14798:14946   */\n      swap3\n      swap2\n      pop\n      pop\n      jump\t// out\n        /* \"#utility.yul\":14976:15306   */\n    tag_192:\n        /* \"#utility.yul\":15092:15095   */\n      0x00\n        /* \"#utility.yul\":15113:15202   */\n      tag_371\n        /* \"#utility.yul\":15195:15201   */\n      dup4\n        /* \"#utility.yul\":15190:15193   */\n      dup6\n        /* \"#utility.yul\":15113:15202   */\n      tag_191\n      jump\t// in\n    tag_371:\n        /* \"#utility.yul\":15106:15202   */\n      swap4\n      pop\n        /* \"#utility.yul\":15212:15268   */\n      tag_372\n        /* \"#utility.yul\":15261:15267   */\n      dup4\n        /* \"#utility.yul\":15256:15259   */\n      dup6\n        /* \"#utility.yul\":15249:15254   */\n      dup5\n        /* \"#utility.yul\":15212:15268   */\n      tag_161\n      jump\t// in\n    tag_372:\n        /* \"#utility.yul\":15293:15299   */\n      dup3\n        /* \"#utility.yul\":15288:15291   */\n      dup5\n        /* \"#utility.yul\":15284:15300   */\n      add\n        /* \"#utility.yul\":15277:15300   */\n      swap1\n      pop\n        /* \"#utility.yul\":14976:15306   */\n      swap4\n      swap3\n      pop\n      pop\n      pop\n      jump\t// out\n        /* \"#utility.yul\":15312:15474   */\n    tag_193:\n        /* \"#utility.yul\":15452:15466   */\n      0x20697320617765736f6d65210000000000000000000000000000000000000000\n        /* \"#utility.yul\":15448:15449   */\n      0x00\n        /* \"#utility.yul\":15440:15446   */\n      dup3\n        /* \"#utility.yul\":15436:15450   */\n      add\n        /* \"#utility.yul\":15429:15467   */\n      mstore\n        /* \"#utility.yul\":15312:15474   */\n      pop\n      jump\t// out\n        /* \"#utility.yul\":15480:15882   */\n    tag_194:\n        /* \"#utility.yul\":15640:15643   */\n      0x00\n        /* \"#utility.yul\":15661:15746   */\n      tag_375\n        /* \"#utility.yul\":15743:15745   */\n      0x0c\n        /* \"#utility.yul\":15738:15741   */\n      dup4\n        /* \"#utility.yul\":15661:15746   */\n      tag_191\n      jump\t// in\n    tag_375:\n        /* \"#utility.yul\":15654:15746   */\n      swap2\n      pop\n        /* \"#utility.yul\":15755:15848   */\n      tag_376\n        /* \"#utility.yul\":15844:15847   */\n      dup3\n        /* \"#utility.yul\":15755:15848   */\n      tag_193\n      jump\t// in\n    tag_376:\n        /* \"#utility.yul\":15873:15875   */\n      0x0c\n        /* \"#utility.yul\":15868:15871   */\n      dup3\n        /* \"#utility.yul\":15864:15876   */\n      add\n        /* \"#utility.yul\":15857:15876   */\n      swap1\n      pop\n        /* \"#utility.yul\":15480:15882   */\n      swap2\n      swap1\n      pop\n      jump\t// out\n        /* \"#utility.yul\":15888:16449   */\n    tag_127:\n        /* \"#utility.yul\":16131:16134   */\n      0x00\n        /* \"#utility.yul\":16153:16258   */\n      tag_378\n        /* \"#utility.yul\":16254:16257   */\n      dup3\n        /* \"#utility.yul\":16245:16251   */\n      dup5\n        /* \"#utility.yul\":16237:16243   */\n      dup7\n        /* \"#utility.yul\":16153:16258   */\n      tag_192\n      jump\t// in\n    tag_378:\n        /* \"#utility.yul\":16146:16258   */\n      swap2\n      pop\n        /* \"#utility.yul\":16275:16423   */\n      tag_379\n        /* \"#utility.yul\":16419:16422   */\n      dup3\n        /* \"#utility.yul\":16275:16423   */\n      tag_194\n      jump\t// in\n    tag_379:\n        /* \"#utility.yul\":16268:16423   */\n      swap2\n      pop\n        /* \"#utility.yul\":16440:16443   */\n      dup2\n        /* \"#utility.yul\":16433:16443   */\n      swap1\n      pop\n        /* \"#utility.yul\":15888:16449   */\n      swap4\n      swap3\n      pop\n      pop\n      pop\n      jump\t// out\n        /* \"#utility.yul\":16455:16889   */\n    tag_195:\n        /* \"#utility.yul\":16544:16549   */\n      0x00\n        /* \"#utility.yul\":16569:16635   */\n      tag_381\n        /* \"#utility.yul\":16585:16634   */\n      tag_382\n        /* \"#utility.yul\":16627:16633   */\n      dup5\n        /* \"#utility.yul\":16585:16634   */\n      tag_160\n      jump\t// in\n    tag_382:\n        /* \"#utility.yul\":16569:16635   */\n      tag_159\n      jump\t// in\n    tag_381:\n        /* \"#utility.yul\":16560:16635   */\n      swap1\n      pop\n        /* \"#utility.yul\":16658:16664   */\n      dup3\n        /* \"#utility.yul\":16651:16656   */\n      dup2\n        /* \"#utility.yul\":16644:16665   */\n      mstore\n        /* \"#utility.yul\":16696:16700   */\n      0x20\n        /* \"#utility.yul\":16689:16694   */\n      dup2\n        /* \"#utility.yul\":16685:16701   */\n      add\n        /* \"#utility.yul\":16734:16737   */\n      dup5\n        /* \"#utility.yul\":16725:16731   */\n      dup5\n        /* \"#utility.yul\":16720:16723   */\n      dup5\n        /* \"#utility.yul\":16716:16732   */\n      add\n        /* \"#utility.yul\":16713:16738   */\n      gt\n        /* \"#utility.yul\":16710:16822   */\n      iszero\n      tag_383\n      jumpi\n        /* \"#utility.yul\":16741:16820   */\n      tag_384\n      tag_156\n      jump\t// in\n    tag_384:\n        /* \"#utility.yul\":16710:16822   */\n    tag_383:\n        /* \"#utility.yul\":16831:16883   */\n      tag_385\n        /* \"#utility.yul\":16876:16882   */\n      dup5\n        /* \"#utility.yul\":16871:16874   */\n      dup3\n        /* \"#utility.yul\":16866:16869   */\n      dup6\n        /* \"#utility.yul\":16831:16883   */\n      tag_152\n      jump\t// in\n    tag_385:\n        /* \"#utility.yul\":16550:16889   */\n      pop\n        /* \"#utility.yul\":16455:16889   */\n      swap4\n      swap3\n      pop\n      pop\n      pop\n      jump\t// out\n        /* \"#utility.yul\":16909:17264   */\n    tag_196:\n        /* \"#utility.yul\":16976:16981   */\n      0x00\n        /* \"#utility.yul\":17025:17028   */\n      dup3\n        /* \"#utility.yul\":17018:17022   */\n      0x1f\n        /* \"#utility.yul\":17010:17016   */\n      dup4\n        /* \"#utility.yul\":17006:17023   */\n      add\n        /* \"#utility.yul\":17002:17029   */\n      slt\n        /* \"#utility.yul\":16992:17114   */\n      tag_387\n      jumpi\n        /* \"#utility.yul\":17033:17112   */\n      tag_388\n      tag_155\n      jump\t// in\n    tag_388:\n        /* \"#utility.yul\":16992:17114   */\n    tag_387:\n        /* \"#utility.yul\":17143:17149   */\n      dup2\n        /* \"#utility.yul\":17137:17150   */\n      mload\n        /* \"#utility.yul\":17168:17258   */\n      tag_389\n        /* \"#utility.yul\":17254:17257   */\n      dup5\n        /* \"#utility.yul\":17246:17252   */\n      dup3\n        /* \"#utility.yul\":17239:17243   */\n      0x20\n        /* \"#utility.yul\":17231:17237   */\n      dup7\n        /* \"#utility.yul\":17227:17244   */\n      add\n        /* \"#utility.yul\":17168:17258   */\n      tag_195\n      jump\t// in\n    tag_389:\n        /* \"#utility.yul\":17159:17258   */\n      swap2\n      pop\n        /* \"#utility.yul\":16982:17264   */\n      pop\n        /* \"#utility.yul\":16909:17264   */\n      swap3\n      swap2\n      pop\n      pop\n      jump\t// out\n        /* \"#utility.yul\":17270:17794   */\n    tag_139:\n        /* \"#utility.yul\":17350:17356   */\n      0x00\n        /* \"#utility.yul\":17399:17401   */\n      0x20\n        /* \"#utility.yul\":17387:17396   */\n      dup3\n        /* \"#utility.yul\":17378:17385   */\n      dup5\n        /* \"#utility.yul\":17374:17397   */\n      sub\n        /* \"#utility.yul\":17370:17402   */\n      slt\n        /* \"#utility.yul\":17367:17486   */\n      iszero\n      tag_391\n      jumpi\n        /* \"#utility.yul\":17405:17484   */\n      tag_392\n      tag_146\n      jump\t// in\n    tag_392:\n        /* \"#utility.yul\":17367:17486   */\n    tag_391:\n        /* \"#utility.yul\":17546:17547   */\n      0x00\n        /* \"#utility.yul\":17535:17544   */\n      dup3\n        /* \"#utility.yul\":17531:17548   */\n      add\n        /* \"#utility.yul\":17525:17549   */\n      mload\n        /* \"#utility.yul\":17576:17594   */\n      0xffffffffffffffff\n        /* \"#utility.yul\":17568:17574   */\n      dup2\n        /* \"#utility.yul\":17565:17595   */\n      gt\n        /* \"#utility.yul\":17562:17679   */\n      iszero\n      tag_393\n      jumpi\n        /* \"#utility.yul\":17598:17677   */\n      tag_394\n      tag_147\n      jump\t// in\n    tag_394:\n        /* \"#utility.yul\":17562:17679   */\n    tag_393:\n        /* \"#utility.yul\":17703:17777   */\n      tag_395\n        /* \"#utility.yul\":17769:17776   */\n      dup5\n        /* \"#utility.yul\":17760:17766   */\n      dup3\n        /* \"#utility.yul\":17749:17758   */\n      dup6\n        /* \"#utility.yul\":17745:17767   */\n      add\n        /* \"#utility.yul\":17703:17777   */\n      tag_196\n      jump\t// in\n    tag_395:\n        /* \"#utility.yul\":17693:17777   */\n      swap2\n      pop\n        /* \"#utility.yul\":17496:17787   */\n      pop\n        /* \"#utility.yul\":17270:17794   */\n      swap3\n      swap2\n      pop\n      pop\n      jump\t// out\n\n    auxdata: 0xa26469706673582212208f851c27e38d6ba9c672beceb1d21c2c9205c343d55499c301b143105253cb5d64736f6c634300081a0033\n}\n",
				"bytecode": {
					"linkReferences": {},
					"object": "60806040525f67ffffffffffffffff81111561001e5761001d6100da565b5b60405190808252806020026020018201604052801561004c5781602001602082028036833780820191505090505b5060039080519060200190610062929190610074565b5034801561006e575f80fd5b50610107565b828054828255905f5260205f209081019282156100ae579160200282015b828111156100ad578251825591602001919060010190610092565b5b5090506100bb91906100bf565b5090565b5b808211156100d6575f815f9055506001016100c0565b5090565b7f4e487b71000000000000000000000000000000000000000000000000000000005f52604160045260245ffd5b6110a1806101145f395ff3fe608060405234801561000f575f80fd5b5060043610610109575f3560e01c80639e7a13ad116100a0578063b63394181161006f578063b633941814610292578063bca353be146102ae578063c19d93fb146102b8578063cb6a33f8146102d6578063e0819c9a1461030657610109565b80639e7a13ad146101f7578063a621d15e14610228578063a7e1a36414610246578063b39e12b51461026257610109565b80636057361d116100dc5780636057361d146101975780636f760f41146101b35780638701f8ca146101cf5780638fda356d146101ed57610109565b80630cd2636e1461010d57806322f3e2d41461012b57806329cd1d96146101495780633a32b54914610179575b5f80fd5b610115610324565b604051610122919061071b565b60405180910390f35b610133610360565b604051610140919061074e565b60405180910390f35b610163600480360381019061015e91906107a2565b61039b565b604051610170919061071b565b60405180910390f35b6101816103bb565b60405161018e919061083d565b60405180910390f35b6101b160048036038101906101ac91906107a2565b6103f8565b005b6101cd60048036038101906101c89190610989565b61043a565b005b6101d761049b565b6040516101e4919061083d565b60405180910390f35b6101f56104aa565b005b610211600480360381019061020c91906107a2565b6104d5565b60405161021f9291906109e3565b60405180910390f35b61023061058a565b60405161023d919061071b565b60405180910390f35b610260600480360381019061025b91906107a2565b610592565b005b61027c60048036038101906102779190610a6e565b6105bb565b604051610289919061083d565b60405180910390f35b6102ac60048036038101906102a791906107a2565b6105ec565b005b6102b66105f5565b005b6102c0610621565b6040516102cd9190610b2c565b60405180910390f35b6102f060048036038101906102eb91906107a2565b610633565b6040516102fd919061074e565b60405180910390f35b61030e61064f565b60405161031b919061083d565b60405180910390f35b5f805f90505f600190505b5f5481116103585780826103439190610b72565b9150808061035090610ba5565b91505061032f565b508091505090565b5f80600181111561037457610373610ab9565b5b60025f9054906101000a900460ff16600181111561039557610394610ab9565b5b14905090565b600381815481106103aa575f80fd5b905f5260205f20015f915090505481565b60606040518060400160405280601c81526020017f5468697320697320616e2065787465726e616c2066756e6374696f6e00000000815250905090565b805f819055507fe5f28171f43fc54876f02589c23cc70d19e06f868cc3811c456e8c61c296a27e813360405161042f929190610c2b565b60405180910390a150565b6001604051806040016040528084815260200183815250908060018154018082558091505060019003905f5260205f2090600202015f909190919091505f820151815f01908161048a9190610e4c565b506020820151816001015550505050565b60606104a56106c6565b905090565b5f60025f6101000a81548160ff021916908360018111156104ce576104cd610ab9565b5b0217905550565b600181815481106104e4575f80fd5b905f5260205f2090600202015f91509050805f01805461050390610c7f565b80601f016020809104026020016040519081016040528092919081815260200182805461052f90610c7f565b801561057a5780601f106105515761010080835404028352916020019161057a565b820191905f5260205f20905b81548152906001019060200180831161055d57829003601f168201915b5050505050908060010154905082565b5f8054905090565b600381908060018154018082558091505060019003905f5260205f20015f909190919091505550565b60605f83836040516020016105d1929190610f93565b60405160208183030381529060405290508091505092915050565b805f8190555050565b600160025f6101000a81548160ff0219169083600181111561061a57610619610ab9565b5b0217905550565b60025f9054906101000a900460ff1681565b5f815f541115610646576001905061064a565b5f90505b919050565b60603073ffffffffffffffffffffffffffffffffffffffff16633a32b5496040518163ffffffff1660e01b81526004015f60405180830381865afa158015610699573d5f803e3d5ffd5b505050506040513d5f823e3d601f19601f820116820180604052508101906106c19190611024565b905090565b60606040518060400160405280601c81526020017f5468697320697320616e20696e7465726e616c2066756e6374696f6e00000000815250905090565b5f819050919050565b61071581610703565b82525050565b5f60208201905061072e5f83018461070c565b92915050565b5f8115159050919050565b61074881610734565b82525050565b5f6020820190506107615f83018461073f565b92915050565b5f604051905090565b5f80fd5b5f80fd5b61078181610703565b811461078b575f80fd5b50565b5f8135905061079c81610778565b92915050565b5f602082840312156107b7576107b6610770565b5b5f6107c48482850161078e565b91505092915050565b5f81519050919050565b5f82825260208201905092915050565b8281835e5f83830152505050565b5f601f19601f8301169050919050565b5f61080f826107cd565b61081981856107d7565b93506108298185602086016107e7565b610832816107f5565b840191505092915050565b5f6020820190508181035f8301526108558184610805565b905092915050565b5f80fd5b5f80fd5b7f4e487b71000000000000000000000000000000000000000000000000000000005f52604160045260245ffd5b61089b826107f5565b810181811067ffffffffffffffff821117156108ba576108b9610865565b5b80604052505050565b5f6108cc610767565b90506108d88282610892565b919050565b5f67ffffffffffffffff8211156108f7576108f6610865565b5b610900826107f5565b9050602081019050919050565b828183375f83830152505050565b5f61092d610928846108dd565b6108c3565b90508281526020810184848401111561094957610948610861565b5b61095484828561090d565b509392505050565b5f82601f8301126109705761096f61085d565b5b813561098084826020860161091b565b91505092915050565b5f806040838503121561099f5761099e610770565b5b5f83013567ffffffffffffffff8111156109bc576109bb610774565b5b6109c88582860161095c565b92505060206109d98582860161078e565b9150509250929050565b5f6040820190508181035f8301526109fb8185610805565b9050610a0a602083018461070c565b9392505050565b5f80fd5b5f80fd5b5f8083601f840112610a2e57610a2d61085d565b5b8235905067ffffffffffffffff811115610a4b57610a4a610a11565b5b602083019150836001820283011115610a6757610a66610a15565b5b9250929050565b5f8060208385031215610a8457610a83610770565b5b5f83013567ffffffffffffffff811115610aa157610aa0610774565b5b610aad85828601610a19565b92509250509250929050565b7f4e487b71000000000000000000000000000000000000000000000000000000005f52602160045260245ffd5b60028110610af757610af6610ab9565b5b50565b5f819050610b0782610ae6565b919050565b5f610b1682610afa565b9050919050565b610b2681610b0c565b82525050565b5f602082019050610b3f5f830184610b1d565b92915050565b7f4e487b71000000000000000000000000000000000000000000000000000000005f52601160045260245ffd5b5f610b7c82610703565b9150610b8783610703565b9250828201905080821115610b9f57610b9e610b45565b5b92915050565b5f610baf82610703565b91507fffffffffffffffffffffffffffffffffffffffffffffffffffffffffffffffff8203610be157610be0610b45565b5b600182019050919050565b5f73ffffffffffffffffffffffffffffffffffffffff82169050919050565b5f610c1582610bec565b9050919050565b610c2581610c0b565b82525050565b5f604082019050610c3e5f83018561070c565b610c4b6020830184610c1c565b9392505050565b7f4e487b71000000000000000000000000000000000000000000000000000000005f52602260045260245ffd5b5f6002820490506001821680610c9657607f821691505b602082108103610ca957610ca8610c52565b5b50919050565b5f819050815f5260205f209050919050565b5f6020601f8301049050919050565b5f82821b905092915050565b5f60088302610d0b7fffffffffffffffffffffffffffffffffffffffffffffffffffffffffffffffff82610cd0565b610d158683610cd0565b95508019841693508086168417925050509392505050565b5f819050919050565b5f610d50610d4b610d4684610703565b610d2d565b610703565b9050919050565b5f819050919050565b610d6983610d36565b610d7d610d7582610d57565b848454610cdc565b825550505050565b5f90565b610d91610d85565b610d9c818484610d60565b505050565b5b81811015610dbf57610db45f82610d89565b600181019050610da2565b5050565b601f821115610e0457610dd581610caf565b610dde84610cc1565b81016020851015610ded578190505b610e01610df985610cc1565b830182610da1565b50505b505050565b5f82821c905092915050565b5f610e245f1984600802610e09565b1980831691505092915050565b5f610e3c8383610e15565b9150826002028217905092915050565b610e55826107cd565b67ffffffffffffffff811115610e6e57610e6d610865565b5b610e788254610c7f565b610e83828285610dc3565b5f60209050601f831160018114610eb4575f8415610ea2578287015190505b610eac8582610e31565b865550610f13565b601f198416610ec286610caf565b5f5b82811015610ee957848901518255600182019150602085019450602081019050610ec4565b86831015610f065784890151610f02601f891682610e15565b8355505b6001600288020188555050505b505050505050565b5f81905092915050565b5f610f308385610f1b565b9350610f3d83858461090d565b82840190509392505050565b7f20697320617765736f6d652100000000000000000000000000000000000000005f82015250565b5f610f7d600c83610f1b565b9150610f8882610f49565b600c82019050919050565b5f610f9f828486610f25565b9150610faa82610f71565b91508190509392505050565b5f610fc8610fc3846108dd565b6108c3565b905082815260208101848484011115610fe457610fe3610861565b5b610fef8482856107e7565b509392505050565b5f82601f83011261100b5761100a61085d565b5b815161101b848260208601610fb6565b91505092915050565b5f6020828403121561103957611038610770565b5b5f82015167ffffffffffffffff81111561105657611055610774565b5b61106284828501610ff7565b9150509291505056fea26469706673582212208f851c27e38d6ba9c672beceb1d21c2c9205c343d55499c301b143105253cb5d64736f6c634300081a0033",
					"opcodes": "PUSH1 0x80 PUSH1 0x40 MSTORE PUSH0 PUSH8 0xFFFFFFFFFFFFFFFF DUP2 GT ISZERO PUSH2 0x1E JUMPI PUSH2 0x1D PUSH2 0xDA JUMP JUMPDEST JUMPDEST PUSH1 0x40 MLOAD SWAP1 DUP1 DUP3 MSTORE DUP1 PUSH1 0x20 MUL PUSH1 0x20 ADD DUP3 ADD PUSH1 0x40 MSTORE DUP1 ISZERO PUSH2 0x4C JUMPI DUP2 PUSH1 0x20 ADD PUSH1 0x20 DUP3 MUL DUP1 CALLDATASIZE DUP4 CALLDATACOPY DUP1 DUP3 ADD SWAP2 POP POP SWAP1 POP JUMPDEST POP PUSH1 0x3 SWAP1 DUP1 MLOAD SWAP1 PUSH1 0x20 ADD SWAP1 PUSH2 0x62 SWAP3 SWAP2 SWAP1 PUSH2 0x74 JUMP JUMPDEST POP CALLVALUE DUP1 ISZERO PUSH2 0x6E JUMPI PUSH0 DUP1 REVERT JUMPDEST POP PUSH2 0x107 JUMP JUMPDEST DUP3 DUP1 SLOAD DUP3 DUP3 SSTORE SWAP1 PUSH0 MSTORE PUSH1 0x20 PUSH0 KECCAK256 SWAP1 DUP2 ADD SWAP3 DUP3 ISZERO PUSH2 0xAE JUMPI SWAP2 PUSH1 0x20 MUL DUP3 ADD JUMPDEST DUP3 DUP2 GT ISZERO PUSH2 0xAD JUMPI DUP3 MLOAD DUP3 SSTORE SWAP2 PUSH1 0x20 ADD SWAP2 SWAP1 PUSH1 0x1 ADD SWAP1 PUSH2 0x92 JUMP JUMPDEST JUMPDEST POP SWAP1 POP PUSH2 0xBB SWAP2 SWAP1 PUSH2 0xBF JUMP JUMPDEST POP SWAP1 JUMP JUMPDEST JUMPDEST DUP1 DUP3 GT ISZERO PUSH2 0xD6 JUMPI PUSH0 DUP2 PUSH0 SWAP1 SSTORE POP PUSH1 0x1 ADD PUSH2 0xC0 JUMP JUMPDEST POP SWAP1 JUMP JUMPDEST PUSH32 0x4E487B7100000000000000000000000000000000000000000000000000000000 PUSH0 MSTORE PUSH1 0x41 PUSH1 0x4 MSTORE PUSH1 0x24 PUSH0 REVERT JUMPDEST PUSH2 0x10A1 DUP1 PUSH2 0x114 PUSH0 CODECOPY PUSH0 RETURN INVALID PUSH1 0x80 PUSH1 0x40 MSTORE CALLVALUE DUP1 ISZERO PUSH2 0xF JUMPI PUSH0 DUP1 REVERT JUMPDEST POP PUSH1 0x4 CALLDATASIZE LT PUSH2 0x109 JUMPI PUSH0 CALLDATALOAD PUSH1 0xE0 SHR DUP1 PUSH4 0x9E7A13AD GT PUSH2 0xA0 JUMPI DUP1 PUSH4 0xB6339418 GT PUSH2 0x6F JUMPI DUP1 PUSH4 0xB6339418 EQ PUSH2 0x292 JUMPI DUP1 PUSH4 0xBCA353BE EQ PUSH2 0x2AE JUMPI DUP1 PUSH4 0xC19D93FB EQ PUSH2 0x2B8 JUMPI DUP1 PUSH4 0xCB6A33F8 EQ PUSH2 0x2D6 JUMPI DUP1 PUSH4 0xE0819C9A EQ PUSH2 0x306 JUMPI PUSH2 0x109 JUMP JUMPDEST DUP1 PUSH4 0x9E7A13AD EQ PUSH2 0x1F7 JUMPI DUP1 PUSH4 0xA621D15E EQ PUSH2 0x228 JUMPI DUP1 PUSH4 0xA7E1A364 EQ PUSH2 0x246 JUMPI DUP1 PUSH4 0xB39E12B5 EQ PUSH2 0x262 JUMPI PUSH2 0x109 JUMP JUMPDEST DUP1 PUSH4 0x6057361D GT PUSH2 0xDC JUMPI DUP1 PUSH4 0x6057361D EQ PUSH2 0x197 JUMPI DUP1 PUSH4 0x6F760F41 EQ PUSH2 0x1B3 JUMPI DUP1 PUSH4 0x8701F8CA EQ PUSH2 0x1CF JUMPI DUP1 PUSH4 0x8FDA356D EQ PUSH2 0x1ED JUMPI PUSH2 0x109 JUMP JUMPDEST DUP1 PUSH4 0xCD2636E EQ PUSH2 0x10D JUMPI DUP1 PUSH4 0x22F3E2D4 EQ PUSH2 0x12B JUMPI DUP1 PUSH4 0x29CD1D96 EQ PUSH2 0x149 JUMPI DUP1 PUSH4 0x3A32B549 EQ PUSH2 0x179 JUMPI JUMPDEST PUSH0 DUP1 REVERT JUMPDEST PUSH2 0x115 PUSH2 0x324 JUMP JUMPDEST PUSH1 0x40 MLOAD PUSH2 0x122 SWAP2 SWAP1 PUSH2 0x71B JUMP JUMPDEST PUSH1 0x40 MLOAD DUP1 SWAP2 SUB SWAP1 RETURN JUMPDEST PUSH2 0x133 PUSH2 0x360 JUMP JUMPDEST PUSH1 0x40 MLOAD PUSH2 0x140 SWAP2 SWAP1 PUSH2 0x74E JUMP JUMPDEST PUSH1 0x40 MLOAD DUP1 SWAP2 SUB SWAP1 RETURN JUMPDEST PUSH2 0x163 PUSH1 0x4 DUP1 CALLDATASIZE SUB DUP2 ADD SWAP1 PUSH2 0x15E SWAP2 SWAP1 PUSH2 0x7A2 JUMP JUMPDEST PUSH2 0x39B JUMP JUMPDEST PUSH1 0x40 MLOAD PUSH2 0x170 SWAP2 SWAP1 PUSH2 0x71B JUMP JUMPDEST PUSH1 0x40 MLOAD DUP1 SWAP2 SUB SWAP1 RETURN JUMPDEST PUSH2 0x181 PUSH2 0x3BB JUMP JUMPDEST PUSH1 0x40 MLOAD PUSH2 0x18E SWAP2 SWAP1 PUSH2 0x83D JUMP JUMPDEST PUSH1 0x40 MLOAD DUP1 SWAP2 SUB SWAP1 RETURN JUMPDEST PUSH2 0x1B1 PUSH1 0x4 DUP1 CALLDATASIZE SUB DUP2 ADD SWAP1 PUSH2 0x1AC SWAP2 SWAP1 PUSH2 0x7A2 JUMP JUMPDEST PUSH2 0x3F8 JUMP JUMPDEST STOP JUMPDEST PUSH2 0x1CD PUSH1 0x4 DUP1 CALLDATASIZE SUB DUP2 ADD SWAP1 PUSH2 0x1C8 SWAP2 SWAP1 PUSH2 0x989 JUMP JUMPDEST PUSH2 0x43A JUMP JUMPDEST STOP JUMPDEST PUSH2 0x1D7 PUSH2 0x49B JUMP JUMPDEST PUSH1 0x40 MLOAD PUSH2 0x1E4 SWAP2 SWAP1 PUSH2 0x83D JUMP JUMPDEST PUSH1 0x40 MLOAD DUP1 SWAP2 SUB SWAP1 RETURN JUMPDEST PUSH2 0x1F5 PUSH2 0x4AA JUMP JUMPDEST STOP JUMPDEST PUSH2 0x211 PUSH1 0x4 DUP1 CALLDATASIZE SUB DUP2 ADD SWAP1 PUSH2 0x20C SWAP2 SWAP1 PUSH2 0x7A2 JUMP JUMPDEST PUSH2 0x4D5 JUMP JUMPDEST PUSH1 0x40 MLOAD PUSH2 0x21F SWAP3 SWAP2 SWAP1 PUSH2 0x9E3 JUMP JUMPDEST PUSH1 0x40 MLOAD DUP1 SWAP2 SUB SWAP1 RETURN JUMPDEST PUSH2 0x230 PUSH2 0x58A JUMP JUMPDEST PUSH1 0x40 MLOAD PUSH2 0x23D SWAP2 SWAP1 PUSH2 0x71B JUMP JUMPDEST PUSH1 0x40 MLOAD DUP1 SWAP2 SUB SWAP1 RETURN JUMPDEST PUSH2 0x260 PUSH1 0x4 DUP1 CALLDATASIZE SUB DUP2 ADD SWAP1 PUSH2 0x25B SWAP2 SWAP1 PUSH2 0x7A2 JUMP JUMPDEST PUSH2 0x592 JUMP JUMPDEST STOP JUMPDEST PUSH2 0x27C PUSH1 0x4 DUP1 CALLDATASIZE SUB DUP2 ADD SWAP1 PUSH2 0x277 SWAP2 SWAP1 PUSH2 0xA6E JUMP JUMPDEST PUSH2 0x5BB JUMP JUMPDEST PUSH1 0x40 MLOAD PUSH2 0x289 SWAP2 SWAP1 PUSH2 0x83D JUMP JUMPDEST PUSH1 0x40 MLOAD DUP1 SWAP2 SUB SWAP1 RETURN JUMPDEST PUSH2 0x2AC PUSH1 0x4 DUP1 CALLDATASIZE SUB DUP2 ADD SWAP1 PUSH2 0x2A7 SWAP2 SWAP1 PUSH2 0x7A2 JUMP JUMPDEST PUSH2 0x5EC JUMP JUMPDEST STOP JUMPDEST PUSH2 0x2B6 PUSH2 0x5F5 JUMP JUMPDEST STOP JUMPDEST PUSH2 0x2C0 PUSH2 0x621 JUMP JUMPDEST PUSH1 0x40 MLOAD PUSH2 0x2CD SWAP2 SWAP1 PUSH2 0xB2C JUMP JUMPDEST PUSH1 0x40 MLOAD DUP1 SWAP2 SUB SWAP1 RETURN JUMPDEST PUSH2 0x2F0 PUSH1 0x4 DUP1 CALLDATASIZE SUB DUP2 ADD SWAP1 PUSH2 0x2EB SWAP2 SWAP1 PUSH2 0x7A2 JUMP JUMPDEST PUSH2 0x633 JUMP JUMPDEST PUSH1 0x40 MLOAD PUSH2 0x2FD SWAP2 SWAP1 PUSH2 0x74E JUMP JUMPDEST PUSH1 0x40 MLOAD DUP1 SWAP2 SUB SWAP1 RETURN JUMPDEST PUSH2 0x30E PUSH2 0x64F JUMP JUMPDEST PUSH1 0x40 MLOAD PUSH2 0x31B SWAP2 SWAP1 PUSH2 0x83D JUMP JUMPDEST PUSH1 0x40 MLOAD DUP1 SWAP2 SUB SWAP1 RETURN JUMPDEST PUSH0 DUP1 PUSH0 SWAP1 POP PUSH0 PUSH1 0x1 SWAP1 POP JUMPDEST PUSH0 SLOAD DUP2 GT PUSH2 0x358 JUMPI DUP1 DUP3 PUSH2 0x343 SWAP2 SWAP1 PUSH2 0xB72 JUMP JUMPDEST SWAP2 POP DUP1 DUP1 PUSH2 0x350 SWAP1 PUSH2 0xBA5 JUMP JUMPDEST SWAP2 POP POP PUSH2 0x32F JUMP JUMPDEST POP DUP1 SWAP2 POP POP SWAP1 JUMP JUMPDEST PUSH0 DUP1 PUSH1 0x1 DUP2 GT ISZERO PUSH2 0x374 JUMPI PUSH2 0x373 PUSH2 0xAB9 JUMP JUMPDEST JUMPDEST PUSH1 0x2 PUSH0 SWAP1 SLOAD SWAP1 PUSH2 0x100 EXP SWAP1 DIV PUSH1 0xFF AND PUSH1 0x1 DUP2 GT ISZERO PUSH2 0x395 JUMPI PUSH2 0x394 PUSH2 0xAB9 JUMP JUMPDEST JUMPDEST EQ SWAP1 POP SWAP1 JUMP JUMPDEST PUSH1 0x3 DUP2 DUP2 SLOAD DUP2 LT PUSH2 0x3AA JUMPI PUSH0 DUP1 REVERT JUMPDEST SWAP1 PUSH0 MSTORE PUSH1 0x20 PUSH0 KECCAK256 ADD PUSH0 SWAP2 POP SWAP1 POP SLOAD DUP2 JUMP JUMPDEST PUSH1 0x60 PUSH1 0x40 MLOAD DUP1 PUSH1 0x40 ADD PUSH1 0x40 MSTORE DUP1 PUSH1 0x1C DUP2 MSTORE PUSH1 0x20 ADD PUSH32 0x5468697320697320616E2065787465726E616C2066756E6374696F6E00000000 DUP2 MSTORE POP SWAP1 POP SWAP1 JUMP JUMPDEST DUP1 PUSH0 DUP2 SWAP1 SSTORE POP PUSH32 0xE5F28171F43FC54876F02589C23CC70D19E06F868CC3811C456E8C61C296A27E DUP2 CALLER PUSH1 0x40 MLOAD PUSH2 0x42F SWAP3 SWAP2 SWAP1 PUSH2 0xC2B JUMP JUMPDEST PUSH1 0x40 MLOAD DUP1 SWAP2 SUB SWAP1 LOG1 POP JUMP JUMPDEST PUSH1 0x1 PUSH1 0x40 MLOAD DUP1 PUSH1 0x40 ADD PUSH1 0x40 MSTORE DUP1 DUP5 DUP2 MSTORE PUSH1 0x20 ADD DUP4 DUP2 MSTORE POP SWAP1 DUP1 PUSH1 0x1 DUP2 SLOAD ADD DUP1 DUP3 SSTORE DUP1 SWAP2 POP POP PUSH1 0x1 SWAP1 SUB SWAP1 PUSH0 MSTORE PUSH1 0x20 PUSH0 KECCAK256 SWAP1 PUSH1 0x2 MUL ADD PUSH0 SWAP1 SWAP2 SWAP1 SWAP2 SWAP1 SWAP2 POP PUSH0 DUP3 ADD MLOAD DUP2 PUSH0 ADD SWAP1 DUP2 PUSH2 0x48A SWAP2 SWAP1 PUSH2 0xE4C JUMP JUMPDEST POP PUSH1 0x20 DUP3 ADD MLOAD DUP2 PUSH1 0x1 ADD SSTORE POP POP POP POP JUMP JUMPDEST PUSH1 0x60 PUSH2 0x4A5 PUSH2 0x6C6 JUMP JUMPDEST SWAP1 POP SWAP1 JUMP JUMPDEST PUSH0 PUSH1 0x2 PUSH0 PUSH2 0x100 EXP DUP2 SLOAD DUP2 PUSH1 0xFF MUL NOT AND SWAP1 DUP4 PUSH1 0x1 DUP2 GT ISZERO PUSH2 0x4CE JUMPI PUSH2 0x4CD PUSH2 0xAB9 JUMP JUMPDEST JUMPDEST MUL OR SWAP1 SSTORE POP JUMP JUMPDEST PUSH1 0x1 DUP2 DUP2 SLOAD DUP2 LT PUSH2 0x4E4 JUMPI PUSH0 DUP1 REVERT JUMPDEST SWAP1 PUSH0 MSTORE PUSH1 0x20 PUSH0 KECCAK256 SWAP1 PUSH1 0x2 MUL ADD PUSH0 SWAP2 POP SWAP1 POP DUP1 PUSH0 ADD DUP1 SLOAD PUSH2 0x503 SWAP1 PUSH2 0xC7F JUMP JUMPDEST DUP1 PUSH1 0x1F ADD PUSH1 0x20 DUP1 SWAP2 DIV MUL PUSH1 0x20 ADD PUSH1 0x40 MLOAD SWAP1 DUP2 ADD PUSH1 0x40 MSTORE DUP1 SWAP3 SWAP2 SWAP1 DUP2 DUP2 MSTORE PUSH1 0x20 ADD DUP3 DUP1 SLOAD PUSH2 0x52F SWAP1 PUSH2 0xC7F JUMP JUMPDEST DUP1 ISZERO PUSH2 0x57A JUMPI DUP1 PUSH1 0x1F LT PUSH2 0x551 JUMPI PUSH2 0x100 DUP1 DUP4 SLOAD DIV MUL DUP4 MSTORE SWAP2 PUSH1 0x20 ADD SWAP2 PUSH2 0x57A JUMP JUMPDEST DUP3 ADD SWAP2 SWAP1 PUSH0 MSTORE PUSH1 0x20 PUSH0 KECCAK256 SWAP1 JUMPDEST DUP2 SLOAD DUP2 MSTORE SWAP1 PUSH1 0x1 ADD SWAP1 PUSH1 0x20 ADD DUP1 DUP4 GT PUSH2 0x55D JUMPI DUP3 SWAP1 SUB PUSH1 0x1F AND DUP3 ADD SWAP2 JUMPDEST POP POP POP POP POP SWAP1 DUP1 PUSH1 0x1 ADD SLOAD SWAP1 POP DUP3 JUMP JUMPDEST PUSH0 DUP1 SLOAD SWAP1 POP SWAP1 JUMP JUMPDEST PUSH1 0x3 DUP2 SWAP1 DUP1 PUSH1 0x1 DUP2 SLOAD ADD DUP1 DUP3 SSTORE DUP1 SWAP2 POP POP PUSH1 0x1 SWAP1 SUB SWAP1 PUSH0 MSTORE PUSH1 0x20 PUSH0 KECCAK256 ADD PUSH0 SWAP1 SWAP2 SWAP1 SWAP2 SWAP1 SWAP2 POP SSTORE POP JUMP JUMPDEST PUSH1 0x60 PUSH0 DUP4 DUP4 PUSH1 0x40 MLOAD PUSH1 0x20 ADD PUSH2 0x5D1 SWAP3 SWAP2 SWAP1 PUSH2 0xF93 JUMP JUMPDEST PUSH1 0x40 MLOAD PUSH1 0x20 DUP2 DUP4 SUB SUB DUP2 MSTORE SWAP1 PUSH1 0x40 MSTORE SWAP1 POP DUP1 SWAP2 POP POP SWAP3 SWAP2 POP POP JUMP JUMPDEST DUP1 PUSH0 DUP2 SWAP1 SSTORE POP POP JUMP JUMPDEST PUSH1 0x1 PUSH1 0x2 PUSH0 PUSH2 0x100 EXP DUP2 SLOAD DUP2 PUSH1 0xFF MUL NOT AND SWAP1 DUP4 PUSH1 0x1 DUP2 GT ISZERO PUSH2 0x61A JUMPI PUSH2 0x619 PUSH2 0xAB9 JUMP JUMPDEST JUMPDEST MUL OR SWAP1 SSTORE POP JUMP JUMPDEST PUSH1 0x2 PUSH0 SWAP1 SLOAD SWAP1 PUSH2 0x100 EXP SWAP1 DIV PUSH1 0xFF AND DUP2 JUMP JUMPDEST PUSH0 DUP2 PUSH0 SLOAD GT ISZERO PUSH2 0x646 JUMPI PUSH1 0x1 SWAP1 POP PUSH2 0x64A JUMP JUMPDEST PUSH0 SWAP1 POP JUMPDEST SWAP2 SWAP1 POP JUMP JUMPDEST PUSH1 0x60 ADDRESS PUSH20 0xFFFFFFFFFFFFFFFFFFFFFFFFFFFFFFFFFFFFFFFF AND PUSH4 0x3A32B549 PUSH1 0x40 MLOAD DUP2 PUSH4 0xFFFFFFFF AND PUSH1 0xE0 SHL DUP2 MSTORE PUSH1 0x4 ADD PUSH0 PUSH1 0x40 MLOAD DUP1 DUP4 SUB DUP2 DUP7 GAS STATICCALL ISZERO DUP1 ISZERO PUSH2 0x699 JUMPI RETURNDATASIZE PUSH0 DUP1 RETURNDATACOPY RETURNDATASIZE PUSH0 REVERT JUMPDEST POP POP POP POP PUSH1 0x40 MLOAD RETURNDATASIZE PUSH0 DUP3 RETURNDATACOPY RETURNDATASIZE PUSH1 0x1F NOT PUSH1 0x1F DUP3 ADD AND DUP3 ADD DUP1 PUSH1 0x40 MSTORE POP DUP2 ADD SWAP1 PUSH2 0x6C1 SWAP2 SWAP1 PUSH2 0x1024 JUMP JUMPDEST SWAP1 POP SWAP1 JUMP JUMPDEST PUSH1 0x60 PUSH1 0x40 MLOAD DUP1 PUSH1 0x40 ADD PUSH1 0x40 MSTORE DUP1 PUSH1 0x1C DUP2 MSTORE PUSH1 0x20 ADD PUSH32 0x5468697320697320616E20696E7465726E616C2066756E6374696F6E00000000 DUP2 MSTORE POP SWAP1 POP SWAP1 JUMP JUMPDEST PUSH0 DUP2 SWAP1 POP SWAP2 SWAP1 POP JUMP JUMPDEST PUSH2 0x715 DUP2 PUSH2 0x703 JUMP JUMPDEST DUP3 MSTORE POP POP JUMP JUMPDEST PUSH0 PUSH1 0x20 DUP3 ADD SWAP1 POP PUSH2 0x72E PUSH0 DUP4 ADD DUP5 PUSH2 0x70C JUMP JUMPDEST SWAP3 SWAP2 POP POP JUMP JUMPDEST PUSH0 DUP2 ISZERO ISZERO SWAP1 POP SWAP2 SWAP1 POP JUMP JUMPDEST PUSH2 0x748 DUP2 PUSH2 0x734 JUMP JUMPDEST DUP3 MSTORE POP POP JUMP JUMPDEST PUSH0 PUSH1 0x20 DUP3 ADD SWAP1 POP PUSH2 0x761 PUSH0 DUP4 ADD DUP5 PUSH2 0x73F JUMP JUMPDEST SWAP3 SWAP2 POP POP JUMP JUMPDEST PUSH0 PUSH1 0x40 MLOAD SWAP1 POP SWAP1 JUMP JUMPDEST PUSH0 DUP1 REVERT JUMPDEST PUSH0 DUP1 REVERT JUMPDEST PUSH2 0x781 DUP2 PUSH2 0x703 JUMP JUMPDEST DUP2 EQ PUSH2 0x78B JUMPI PUSH0 DUP1 REVERT JUMPDEST POP JUMP JUMPDEST PUSH0 DUP2 CALLDATALOAD SWAP1 POP PUSH2 0x79C DUP2 PUSH2 0x778 JUMP JUMPDEST SWAP3 SWAP2 POP POP JUMP JUMPDEST PUSH0 PUSH1 0x20 DUP3 DUP5 SUB SLT ISZERO PUSH2 0x7B7 JUMPI PUSH2 0x7B6 PUSH2 0x770 JUMP JUMPDEST JUMPDEST PUSH0 PUSH2 0x7C4 DUP5 DUP3 DUP6 ADD PUSH2 0x78E JUMP JUMPDEST SWAP2 POP POP SWAP3 SWAP2 POP POP JUMP JUMPDEST PUSH0 DUP2 MLOAD SWAP1 POP SWAP2 SWAP1 POP JUMP JUMPDEST PUSH0 DUP3 DUP3 MSTORE PUSH1 0x20 DUP3 ADD SWAP1 POP SWAP3 SWAP2 POP POP JUMP JUMPDEST DUP3 DUP2 DUP4 MCOPY PUSH0 DUP4 DUP4 ADD MSTORE POP POP POP JUMP JUMPDEST PUSH0 PUSH1 0x1F NOT PUSH1 0x1F DUP4 ADD AND SWAP1 POP SWAP2 SWAP1 POP JUMP JUMPDEST PUSH0 PUSH2 0x80F DUP3 PUSH2 0x7CD JUMP JUMPDEST PUSH2 0x819 DUP2 DUP6 PUSH2 0x7D7 JUMP JUMPDEST SWAP4 POP PUSH2 0x829 DUP2 DUP6 PUSH1 0x20 DUP7 ADD PUSH2 0x7E7 JUMP JUMPDEST PUSH2 0x832 DUP2 PUSH2 0x7F5 JUMP JUMPDEST DUP5 ADD SWAP2 POP POP SWAP3 SWAP2 POP POP JUMP JUMPDEST PUSH0 PUSH1 0x20 DUP3 ADD SWAP1 POP DUP2 DUP2 SUB PUSH0 DUP4 ADD MSTORE PUSH2 0x855 DUP2 DUP5 PUSH2 0x805 JUMP JUMPDEST SWAP1 POP SWAP3 SWAP2 POP POP JUMP JUMPDEST PUSH0 DUP1 REVERT JUMPDEST PUSH0 DUP1 REVERT JUMPDEST PUSH32 0x4E487B7100000000000000000000000000000000000000000000000000000000 PUSH0 MSTORE PUSH1 0x41 PUSH1 0x4 MSTORE PUSH1 0x24 PUSH0 REVERT JUMPDEST PUSH2 0x89B DUP3 PUSH2 0x7F5 JUMP JUMPDEST DUP2 ADD DUP2 DUP2 LT PUSH8 0xFFFFFFFFFFFFFFFF DUP3 GT OR ISZERO PUSH2 0x8BA JUMPI PUSH2 0x8B9 PUSH2 0x865 JUMP JUMPDEST JUMPDEST DUP1 PUSH1 0x40 MSTORE POP POP POP JUMP JUMPDEST PUSH0 PUSH2 0x8CC PUSH2 0x767 JUMP JUMPDEST SWAP1 POP PUSH2 0x8D8 DUP3 DUP3 PUSH2 0x892 JUMP JUMPDEST SWAP2 SWAP1 POP JUMP JUMPDEST PUSH0 PUSH8 0xFFFFFFFFFFFFFFFF DUP3 GT ISZERO PUSH2 0x8F7 JUMPI PUSH2 0x8F6 PUSH2 0x865 JUMP JUMPDEST JUMPDEST PUSH2 0x900 DUP3 PUSH2 0x7F5 JUMP JUMPDEST SWAP1 POP PUSH1 0x20 DUP2 ADD SWAP1 POP SWAP2 SWAP1 POP JUMP JUMPDEST DUP3 DUP2 DUP4 CALLDATACOPY PUSH0 DUP4 DUP4 ADD MSTORE POP POP POP JUMP JUMPDEST PUSH0 PUSH2 0x92D PUSH2 0x928 DUP5 PUSH2 0x8DD JUMP JUMPDEST PUSH2 0x8C3 JUMP JUMPDEST SWAP1 POP DUP3 DUP2 MSTORE PUSH1 0x20 DUP2 ADD DUP5 DUP5 DUP5 ADD GT ISZERO PUSH2 0x949 JUMPI PUSH2 0x948 PUSH2 0x861 JUMP JUMPDEST JUMPDEST PUSH2 0x954 DUP5 DUP3 DUP6 PUSH2 0x90D JUMP JUMPDEST POP SWAP4 SWAP3 POP POP POP JUMP JUMPDEST PUSH0 DUP3 PUSH1 0x1F DUP4 ADD SLT PUSH2 0x970 JUMPI PUSH2 0x96F PUSH2 0x85D JUMP JUMPDEST JUMPDEST DUP2 CALLDATALOAD PUSH2 0x980 DUP5 DUP3 PUSH1 0x20 DUP7 ADD PUSH2 0x91B JUMP JUMPDEST SWAP2 POP POP SWAP3 SWAP2 POP POP JUMP JUMPDEST PUSH0 DUP1 PUSH1 0x40 DUP4 DUP6 SUB SLT ISZERO PUSH2 0x99F JUMPI PUSH2 0x99E PUSH2 0x770 JUMP JUMPDEST JUMPDEST PUSH0 DUP4 ADD CALLDATALOAD PUSH8 0xFFFFFFFFFFFFFFFF DUP2 GT ISZERO PUSH2 0x9BC JUMPI PUSH2 0x9BB PUSH2 0x774 JUMP JUMPDEST JUMPDEST PUSH2 0x9C8 DUP6 DUP3 DUP7 ADD PUSH2 0x95C JUMP JUMPDEST SWAP3 POP POP PUSH1 0x20 PUSH2 0x9D9 DUP6 DUP3 DUP7 ADD PUSH2 0x78E JUMP JUMPDEST SWAP2 POP POP SWAP3 POP SWAP3 SWAP1 POP JUMP JUMPDEST PUSH0 PUSH1 0x40 DUP3 ADD SWAP1 POP DUP2 DUP2 SUB PUSH0 DUP4 ADD MSTORE PUSH2 0x9FB DUP2 DUP6 PUSH2 0x805 JUMP JUMPDEST SWAP1 POP PUSH2 0xA0A PUSH1 0x20 DUP4 ADD DUP5 PUSH2 0x70C JUMP JUMPDEST SWAP4 SWAP3 POP POP POP JUMP JUMPDEST PUSH0 DUP1 REVERT JUMPDEST PUSH0 DUP1 REVERT JUMPDEST PUSH0 DUP1 DUP4 PUSH1 0x1F DUP5 ADD SLT PUSH2 0xA2E JUMPI PUSH2 0xA2D PUSH2 0x85D JUMP JUMPDEST JUMPDEST DUP3 CALLDATALOAD SWAP1 POP PUSH8 0xFFFFFFFFFFFFFFFF DUP2 GT ISZERO PUSH2 0xA4B JUMPI PUSH2 0xA4A PUSH2 0xA11 JUMP JUMPDEST JUMPDEST PUSH1 0x20 DUP4 ADD SWAP2 POP DUP4 PUSH1 0x1 DUP3 MUL DUP4 ADD GT ISZERO PUSH2 0xA67 JUMPI PUSH2 0xA66 PUSH2 0xA15 JUMP JUMPDEST JUMPDEST SWAP3 POP SWAP3 SWAP1 POP JUMP JUMPDEST PUSH0 DUP1 PUSH1 0x20 DUP4 DUP6 SUB SLT ISZERO PUSH2 0xA84 JUMPI PUSH2 0xA83 PUSH2 0x770 JUMP JUMPDEST JUMPDEST PUSH0 DUP4 ADD CALLDATALOAD PUSH8 0xFFFFFFFFFFFFFFFF DUP2 GT ISZERO PUSH2 0xAA1 JUMPI PUSH2 0xAA0 PUSH2 0x774 JUMP JUMPDEST JUMPDEST PUSH2 0xAAD DUP6 DUP3 DUP7 ADD PUSH2 0xA19 JUMP JUMPDEST SWAP3 POP SWAP3 POP POP SWAP3 POP SWAP3 SWAP1 POP JUMP JUMPDEST PUSH32 0x4E487B7100000000000000000000000000000000000000000000000000000000 PUSH0 MSTORE PUSH1 0x21 PUSH1 0x4 MSTORE PUSH1 0x24 PUSH0 REVERT JUMPDEST PUSH1 0x2 DUP2 LT PUSH2 0xAF7 JUMPI PUSH2 0xAF6 PUSH2 0xAB9 JUMP JUMPDEST JUMPDEST POP JUMP JUMPDEST PUSH0 DUP2 SWAP1 POP PUSH2 0xB07 DUP3 PUSH2 0xAE6 JUMP JUMPDEST SWAP2 SWAP1 POP JUMP JUMPDEST PUSH0 PUSH2 0xB16 DUP3 PUSH2 0xAFA JUMP JUMPDEST SWAP1 POP SWAP2 SWAP1 POP JUMP JUMPDEST PUSH2 0xB26 DUP2 PUSH2 0xB0C JUMP JUMPDEST DUP3 MSTORE POP POP JUMP JUMPDEST PUSH0 PUSH1 0x20 DUP3 ADD SWAP1 POP PUSH2 0xB3F PUSH0 DUP4 ADD DUP5 PUSH2 0xB1D JUMP JUMPDEST SWAP3 SWAP2 POP POP JUMP JUMPDEST PUSH32 0x4E487B7100000000000000000000000000000000000000000000000000000000 PUSH0 MSTORE PUSH1 0x11 PUSH1 0x4 MSTORE PUSH1 0x24 PUSH0 REVERT JUMPDEST PUSH0 PUSH2 0xB7C DUP3 PUSH2 0x703 JUMP JUMPDEST SWAP2 POP PUSH2 0xB87 DUP4 PUSH2 0x703 JUMP JUMPDEST SWAP3 POP DUP3 DUP3 ADD SWAP1 POP DUP1 DUP3 GT ISZERO PUSH2 0xB9F JUMPI PUSH2 0xB9E PUSH2 0xB45 JUMP JUMPDEST JUMPDEST SWAP3 SWAP2 POP POP JUMP JUMPDEST PUSH0 PUSH2 0xBAF DUP3 PUSH2 0x703 JUMP JUMPDEST SWAP2 POP PUSH32 0xFFFFFFFFFFFFFFFFFFFFFFFFFFFFFFFFFFFFFFFFFFFFFFFFFFFFFFFFFFFFFFFF DUP3 SUB PUSH2 0xBE1 JUMPI PUSH2 0xBE0 PUSH2 0xB45 JUMP JUMPDEST JUMPDEST PUSH1 0x1 DUP3 ADD SWAP1 POP SWAP2 SWAP1 POP JUMP JUMPDEST PUSH0 PUSH20 0xFFFFFFFFFFFFFFFFFFFFFFFFFFFFFFFFFFFFFFFF DUP3 AND SWAP1 POP SWAP2 SWAP1 POP JUMP JUMPDEST PUSH0 PUSH2 0xC15 DUP3 PUSH2 0xBEC JUMP JUMPDEST SWAP1 POP SWAP2 SWAP1 POP JUMP JUMPDEST PUSH2 0xC25 DUP2 PUSH2 0xC0B JUMP JUMPDEST DUP3 MSTORE POP POP JUMP JUMPDEST PUSH0 PUSH1 0x40 DUP3 ADD SWAP1 POP PUSH2 0xC3E PUSH0 DUP4 ADD DUP6 PUSH2 0x70C JUMP JUMPDEST PUSH2 0xC4B PUSH1 0x20 DUP4 ADD DUP5 PUSH2 0xC1C JUMP JUMPDEST SWAP4 SWAP3 POP POP POP JUMP JUMPDEST PUSH32 0x4E487B7100000000000000000000000000000000000000000000000000000000 PUSH0 MSTORE PUSH1 0x22 PUSH1 0x4 MSTORE PUSH1 0x24 PUSH0 REVERT JUMPDEST PUSH0 PUSH1 0x2 DUP3 DIV SWAP1 POP PUSH1 0x1 DUP3 AND DUP1 PUSH2 0xC96 JUMPI PUSH1 0x7F DUP3 AND SWAP2 POP JUMPDEST PUSH1 0x20 DUP3 LT DUP2 SUB PUSH2 0xCA9 JUMPI PUSH2 0xCA8 PUSH2 0xC52 JUMP JUMPDEST JUMPDEST POP SWAP2 SWAP1 POP JUMP JUMPDEST PUSH0 DUP2 SWAP1 POP DUP2 PUSH0 MSTORE PUSH1 0x20 PUSH0 KECCAK256 SWAP1 POP SWAP2 SWAP1 POP JUMP JUMPDEST PUSH0 PUSH1 0x20 PUSH1 0x1F DUP4 ADD DIV SWAP1 POP SWAP2 SWAP1 POP JUMP JUMPDEST PUSH0 DUP3 DUP3 SHL SWAP1 POP SWAP3 SWAP2 POP POP JUMP JUMPDEST PUSH0 PUSH1 0x8 DUP4 MUL PUSH2 0xD0B PUSH32 0xFFFFFFFFFFFFFFFFFFFFFFFFFFFFFFFFFFFFFFFFFFFFFFFFFFFFFFFFFFFFFFFF DUP3 PUSH2 0xCD0 JUMP JUMPDEST PUSH2 0xD15 DUP7 DUP4 PUSH2 0xCD0 JUMP JUMPDEST SWAP6 POP DUP1 NOT DUP5 AND SWAP4 POP DUP1 DUP7 AND DUP5 OR SWAP3 POP POP POP SWAP4 SWAP3 POP POP POP JUMP JUMPDEST PUSH0 DUP2 SWAP1 POP SWAP2 SWAP1 POP JUMP JUMPDEST PUSH0 PUSH2 0xD50 PUSH2 0xD4B PUSH2 0xD46 DUP5 PUSH2 0x703 JUMP JUMPDEST PUSH2 0xD2D JUMP JUMPDEST PUSH2 0x703 JUMP JUMPDEST SWAP1 POP SWAP2 SWAP1 POP JUMP JUMPDEST PUSH0 DUP2 SWAP1 POP SWAP2 SWAP1 POP JUMP JUMPDEST PUSH2 0xD69 DUP4 PUSH2 0xD36 JUMP JUMPDEST PUSH2 0xD7D PUSH2 0xD75 DUP3 PUSH2 0xD57 JUMP JUMPDEST DUP5 DUP5 SLOAD PUSH2 0xCDC JUMP JUMPDEST DUP3 SSTORE POP POP POP POP JUMP JUMPDEST PUSH0 SWAP1 JUMP JUMPDEST PUSH2 0xD91 PUSH2 0xD85 JUMP JUMPDEST PUSH2 0xD9C DUP2 DUP5 DUP5 PUSH2 0xD60 JUMP JUMPDEST POP POP POP JUMP JUMPDEST JUMPDEST DUP2 DUP2 LT ISZERO PUSH2 0xDBF JUMPI PUSH2 0xDB4 PUSH0 DUP3 PUSH2 0xD89 JUMP JUMPDEST PUSH1 0x1 DUP2 ADD SWAP1 POP PUSH2 0xDA2 JUMP JUMPDEST POP POP JUMP JUMPDEST PUSH1 0x1F DUP3 GT ISZERO PUSH2 0xE04 JUMPI PUSH2 0xDD5 DUP2 PUSH2 0xCAF JUMP JUMPDEST PUSH2 0xDDE DUP5 PUSH2 0xCC1 JUMP JUMPDEST DUP2 ADD PUSH1 0x20 DUP6 LT ISZERO PUSH2 0xDED JUMPI DUP2 SWAP1 POP JUMPDEST PUSH2 0xE01 PUSH2 0xDF9 DUP6 PUSH2 0xCC1 JUMP JUMPDEST DUP4 ADD DUP3 PUSH2 0xDA1 JUMP JUMPDEST POP POP JUMPDEST POP POP POP JUMP JUMPDEST PUSH0 DUP3 DUP3 SHR SWAP1 POP SWAP3 SWAP2 POP POP JUMP JUMPDEST PUSH0 PUSH2 0xE24 PUSH0 NOT DUP5 PUSH1 0x8 MUL PUSH2 0xE09 JUMP JUMPDEST NOT DUP1 DUP4 AND SWAP2 POP POP SWAP3 SWAP2 POP POP JUMP JUMPDEST PUSH0 PUSH2 0xE3C DUP4 DUP4 PUSH2 0xE15 JUMP JUMPDEST SWAP2 POP DUP3 PUSH1 0x2 MUL DUP3 OR SWAP1 POP SWAP3 SWAP2 POP POP JUMP JUMPDEST PUSH2 0xE55 DUP3 PUSH2 0x7CD JUMP JUMPDEST PUSH8 0xFFFFFFFFFFFFFFFF DUP2 GT ISZERO PUSH2 0xE6E JUMPI PUSH2 0xE6D PUSH2 0x865 JUMP JUMPDEST JUMPDEST PUSH2 0xE78 DUP3 SLOAD PUSH2 0xC7F JUMP JUMPDEST PUSH2 0xE83 DUP3 DUP3 DUP6 PUSH2 0xDC3 JUMP JUMPDEST PUSH0 PUSH1 0x20 SWAP1 POP PUSH1 0x1F DUP4 GT PUSH1 0x1 DUP2 EQ PUSH2 0xEB4 JUMPI PUSH0 DUP5 ISZERO PUSH2 0xEA2 JUMPI DUP3 DUP8 ADD MLOAD SWAP1 POP JUMPDEST PUSH2 0xEAC DUP6 DUP3 PUSH2 0xE31 JUMP JUMPDEST DUP7 SSTORE POP PUSH2 0xF13 JUMP JUMPDEST PUSH1 0x1F NOT DUP5 AND PUSH2 0xEC2 DUP7 PUSH2 0xCAF JUMP JUMPDEST PUSH0 JUMPDEST DUP3 DUP2 LT ISZERO PUSH2 0xEE9 JUMPI DUP5 DUP10 ADD MLOAD DUP3 SSTORE PUSH1 0x1 DUP3 ADD SWAP2 POP PUSH1 0x20 DUP6 ADD SWAP5 POP PUSH1 0x20 DUP2 ADD SWAP1 POP PUSH2 0xEC4 JUMP JUMPDEST DUP7 DUP4 LT ISZERO PUSH2 0xF06 JUMPI DUP5 DUP10 ADD MLOAD PUSH2 0xF02 PUSH1 0x1F DUP10 AND DUP3 PUSH2 0xE15 JUMP JUMPDEST DUP4 SSTORE POP JUMPDEST PUSH1 0x1 PUSH1 0x2 DUP9 MUL ADD DUP9 SSTORE POP POP POP JUMPDEST POP POP POP POP POP POP JUMP JUMPDEST PUSH0 DUP2 SWAP1 POP SWAP3 SWAP2 POP POP JUMP JUMPDEST PUSH0 PUSH2 0xF30 DUP4 DUP6 PUSH2 0xF1B JUMP JUMPDEST SWAP4 POP PUSH2 0xF3D DUP4 DUP6 DUP5 PUSH2 0x90D JUMP JUMPDEST DUP3 DUP5 ADD SWAP1 POP SWAP4 SWAP3 POP POP POP JUMP JUMPDEST PUSH32 0x20697320617765736F6D65210000000000000000000000000000000000000000 PUSH0 DUP3 ADD MSTORE POP JUMP JUMPDEST PUSH0 PUSH2 0xF7D PUSH1 0xC DUP4 PUSH2 0xF1B JUMP JUMPDEST SWAP2 POP PUSH2 0xF88 DUP3 PUSH2 0xF49 JUMP JUMPDEST PUSH1 0xC DUP3 ADD SWAP1 POP SWAP2 SWAP1 POP JUMP JUMPDEST PUSH0 PUSH2 0xF9F DUP3 DUP5 DUP7 PUSH2 0xF25 JUMP JUMPDEST SWAP2 POP PUSH2 0xFAA DUP3 PUSH2 0xF71 JUMP JUMPDEST SWAP2 POP DUP2 SWAP1 POP SWAP4 SWAP3 POP POP POP JUMP JUMPDEST PUSH0 PUSH2 0xFC8 PUSH2 0xFC3 DUP5 PUSH2 0x8DD JUMP JUMPDEST PUSH2 0x8C3 JUMP JUMPDEST SWAP1 POP DUP3 DUP2 MSTORE PUSH1 0x20 DUP2 ADD DUP5 DUP5 DUP5 ADD GT ISZERO PUSH2 0xFE4 JUMPI PUSH2 0xFE3 PUSH2 0x861 JUMP JUMPDEST JUMPDEST PUSH2 0xFEF DUP5 DUP3 DUP6 PUSH2 0x7E7 JUMP JUMPDEST POP SWAP4 SWAP3 POP POP POP JUMP JUMPDEST PUSH0 DUP3 PUSH1 0x1F DUP4 ADD SLT PUSH2 0x100B JUMPI PUSH2 0x100A PUSH2 0x85D JUMP JUMPDEST JUMPDEST DUP2 MLOAD PUSH2 0x101B DUP5 DUP3 PUSH1 0x20 DUP7 ADD PUSH2 0xFB6 JUMP JUMPDEST SWAP2 POP POP SWAP3 SWAP2 POP POP JUMP JUMPDEST PUSH0 PUSH1 0x20 DUP3 DUP5 SUB SLT ISZERO PUSH2 0x1039 JUMPI PUSH2 0x1038 PUSH2 0x770 JUMP JUMPDEST JUMPDEST PUSH0 DUP3 ADD MLOAD PUSH8 0xFFFFFFFFFFFFFFFF DUP2 GT ISZERO PUSH2 0x1056 JUMPI PUSH2 0x1055 PUSH2 0x774 JUMP JUMPDEST JUMPDEST PUSH2 0x1062 DUP5 DUP3 DUP6 ADD PUSH2 0xFF7 JUMP JUMPDEST SWAP2 POP POP SWAP3 SWAP2 POP POP JUMP INVALID LOG2 PUSH5 0x6970667358 0x22 SLT KECCAK256 DUP16 DUP6 SHR 0x27 0xE3 DUP14 PUSH12 0xA9C672BECEB1D21C2C9205C3 NUMBER 0xD5 SLOAD SWAP10 0xC3 ADD 0xB1 NUMBER LT MSTORE MSTORE8 0xCB TSTORE PUSH5 0x736F6C6343 STOP ADDMOD BYTE STOP CALLER "
				},
				"gasEstimates": {
					"creation": {
						"codeDepositCost": "851400",
						"executionCost": "infinite",
						"totalCost": "infinite"
					},
					"external": {
						"activateContract()": "24517",
						"addFavoriteNumber(uint256)": "46888",
						"addPerson(string,uint256)": "infinite",
						"callInternalFunction()": "infinite",
						"concatenateString(string)": "infinite",
						"deactivateContract()": "24473",
						"externalFunction()": "infinite",
						"favoriteNumbers(uint256)": "infinite",
						"getFavoriteNumber()": "2477",
						"isActive()": "2577",
						"isGreaterThan(uint256)": "2823",
						"people(uint256)": "infinite",
						"state()": "2620",
						"store(uint256)": "infinite",
						"storeNumber(uint256)": "22536",
						"sumToFavoriteNumber()": "infinite",
						"testExternalFunction()": "infinite"
					},
					"internal": {
						"internalFunction()": "infinite"
					}
				},
				"methodIdentifiers": {
					"activateContract()": "8fda356d",
					"addFavoriteNumber(uint256)": "a7e1a364",
					"addPerson(string,uint256)": "6f760f41",
					"callInternalFunction()": "8701f8ca",
					"concatenateString(string)": "b39e12b5",
					"deactivateContract()": "bca353be",
					"externalFunction()": "3a32b549",
					"favoriteNumbers(uint256)": "29cd1d96",
					"getFavoriteNumber()": "a621d15e",
					"isActive()": "22f3e2d4",
					"isGreaterThan(uint256)": "cb6a33f8",
					"people(uint256)": "9e7a13ad",
					"state()": "c19d93fb",
					"store(uint256)": "6057361d",
					"storeNumber(uint256)": "b6339418",
					"sumToFavoriteNumber()": "0cd2636e",
					"testExternalFunction()": "e0819c9a"
				}
			},
			"storageLayout": {
				"storage": [
					{
						"astId": 3,
						"contract": "SimpleStorage.sol:SimpleStorage",
						"label": "favoriteNumber",
						"offset": 0,
						"slot": "0",
						"type": "t_uint256"
					},
					{
						"astId": 12,
						"contract": "SimpleStorage.sol:SimpleStorage",
						"label": "people",
						"offset": 0,
						"slot": "1",
						"type": "t_array(t_struct(Person)8_storage)dyn_storage"
					},
					{
						"astId": 18,
						"contract": "SimpleStorage.sol:SimpleStorage",
						"label": "state",
						"offset": 0,
						"slot": "2",
						"type": "t_enum(ContractState)15"
					},
					{
						"astId": 125,
						"contract": "SimpleStorage.sol:SimpleStorage",
						"label": "favoriteNumbers",
						"offset": 0,
						"slot": "3",
						"type": "t_array(t_uint256)dyn_storage"
					}
				],
				"types": {
					"t_array(t_struct(Person)8_storage)dyn_storage": {
						"base": "t_struct(Person)8_storage",
						"encoding": "dynamic_array",
						"label": "struct SimpleStorage.Person[]",
						"numberOfBytes": "32"
					},
					"t_array(t_uint256)dyn_storage": {
						"base": "t_uint256",
						"encoding": "dynamic_array",
						"label": "uint256[]",
						"numberOfBytes": "32"
					},
					"t_enum(ContractState)15": {
						"encoding": "inplace",
						"label": "enum SimpleStorage.ContractState",
						"numberOfBytes": "1"
					},
					"t_string_storage": {
						"encoding": "bytes",
						"label": "string",
						"numberOfBytes": "32"
					},
					"t_struct(Person)8_storage": {
						"encoding": "inplace",
						"label": "struct SimpleStorage.Person",
						"members": [
							{
								"astId": 5,
								"contract": "SimpleStorage.sol:SimpleStorage",
								"label": "name",
								"offset": 0,
								"slot": "0",
								"type": "t_string_storage"
							},
							{
								"astId": 7,
								"contract": "SimpleStorage.sol:SimpleStorage",
								"label": "favoriteNumber",
								"offset": 0,
								"slot": "1",
								"type": "t_uint256"
							}
						],
						"numberOfBytes": "64"
					},
					"t_uint256": {
						"encoding": "inplace",
						"label": "uint256",
						"numberOfBytes": "32"
					}
				}
			},
			"userdoc": {
				"kind": "user",
				"methods": {},
				"version": 1
			}
		}
	}
}